{"project/contracts/StreamFiPayment.sol":{"StreamFiPayment":{"abi":[{"inputs":[{"internalType":"address","name":"_platform","type":"address"}],"stateMutability":"nonpayable","type":"constructor"},{"anonymous":false,"inputs":[{"indexed":false,"internalType":"uint256","name":"movieId","type":"uint256"},{"indexed":false,"internalType":"address","name":"investor","type":"address"},{"indexed":false,"internalType":"uint256","name":"shares","type":"uint256"}],"name":"InvestmentMade","type":"event"},{"anonymous":false,"inputs":[{"indexed":false,"internalType":"uint256","name":"movieId","type":"uint256"},{"indexed":false,"internalType":"address","name":"creator","type":"address"},{"indexed":false,"internalType":"uint256","name":"pricePerSecond","type":"uint256"}],"name":"MovieRegistered","type":"event"},{"anonymous":false,"inputs":[{"indexed":false,"internalType":"uint256","name":"movieId","type":"uint256"},{"indexed":false,"internalType":"address","name":"user","type":"address"},{"indexed":false,"internalType":"uint256","name":"amount","type":"uint256"}],"name":"PaymentReceived","type":"event"},{"anonymous":false,"inputs":[{"indexed":false,"internalType":"uint256","name":"movieId","type":"uint256"},{"indexed":false,"internalType":"address","name":"user","type":"address"},{"indexed":false,"internalType":"uint256","name":"fromTime","type":"uint256"},{"indexed":false,"internalType":"uint256","name":"toTime","type":"uint256"},{"indexed":false,"internalType":"uint256","name":"secondsStreamed","type":"uint256"},{"indexed":false,"internalType":"uint256","name":"amount","type":"uint256"}],"name":"StreamSettled","type":"event"},{"anonymous":false,"inputs":[{"indexed":false,"internalType":"uint256","name":"movieId","type":"uint256"},{"indexed":false,"internalType":"address","name":"user","type":"address"},{"indexed":false,"internalType":"uint256","name":"startTime","type":"uint256"}],"name":"StreamStarted","type":"event"},{"anonymous":false,"inputs":[{"indexed":false,"internalType":"uint256","name":"movieId","type":"uint256"},{"indexed":false,"internalType":"address","name":"user","type":"address"},{"indexed":false,"internalType":"uint256","name":"stopTime","type":"uint256"},{"indexed":false,"internalType":"uint256","name":"totalSeconds","type":"uint256"},{"indexed":false,"internalType":"uint256","name":"totalPaid","type":"uint256"}],"name":"StreamStopped","type":"event"},{"anonymous":false,"inputs":[{"indexed":false,"internalType":"address","name":"user","type":"address"},{"indexed":false,"internalType":"uint256","name":"amount","type":"uint256"}],"name":"Withdrawal","type":"event"},{"inputs":[],"name":"CREATOR_SHARE","outputs":[{"internalType":"uint256","name":"","type":"uint256"}],"stateMutability":"view","type":"function"},{"inputs":[],"name":"INVESTOR_SHARE","outputs":[{"internalType":"uint256","name":"","type":"uint256"}],"stateMutability":"view","type":"function"},{"inputs":[],"name":"PLATFORM_SHARE","outputs":[{"internalType":"uint256","name":"","type":"uint256"}],"stateMutability":"view","type":"function"},{"inputs":[{"internalType":"uint256","name":"movieId","type":"uint256"}],"name":"invest","outputs":[],"stateMutability":"payable","type":"function"},{"inputs":[{"internalType":"uint256","name":"","type":"uint256"},{"internalType":"address","name":"","type":"address"}],"name":"investors","outputs":[{"internalType":"uint256","name":"shares","type":"uint256"},{"internalType":"uint256","name":"balance","type":"uint256"}],"stateMutability":"view","type":"function"},{"inputs":[],"name":"movieCount","outputs":[{"internalType":"uint256","name":"","type":"uint256"}],"stateMutability":"view","type":"function"},{"inputs":[{"internalType":"uint256","name":"","type":"uint256"},{"internalType":"uint256","name":"","type":"uint256"}],"name":"movieInvestors","outputs":[{"internalType":"address","name":"","type":"address"}],"stateMutability":"view","type":"function"},{"inputs":[{"internalType":"uint256","name":"","type":"uint256"}],"name":"movies","outputs":[{"internalType":"uint256","name":"id","type":"uint256"},{"internalType":"address","name":"creator","type":"address"},{"internalType":"uint256","name":"pricePerSecond","type":"uint256"},{"internalType":"uint256","name":"totalRevenue","type":"uint256"},{"internalType":"bool","name":"exists","type":"bool"}],"stateMutability":"view","type":"function"},{"inputs":[{"internalType":"uint256","name":"movieId","type":"uint256"}],"name":"pay","outputs":[],"stateMutability":"payable","type":"function"},{"inputs":[],"name":"platform","outputs":[{"internalType":"address","name":"","type":"address"}],"stateMutability":"view","type":"function"},{"inputs":[{"internalType":"uint256","name":"pricePerSecond","type":"uint256"},{"internalType":"address","name":"creatorPayoutWallet","type":"address"}],"name":"registerMovie","outputs":[],"stateMutability":"nonpayable","type":"function"},{"inputs":[{"internalType":"uint256","name":"movieId","type":"uint256"}],"name":"settleStream","outputs":[],"stateMutability":"payable","type":"function"},{"inputs":[{"internalType":"uint256","name":"movieId","type":"uint256"}],"name":"startStream","outputs":[],"stateMutability":"nonpayable","type":"function"},{"inputs":[{"internalType":"uint256","name":"movieId","type":"uint256"}],"name":"stopStream","outputs":[],"stateMutability":"nonpayable","type":"function"},{"inputs":[{"internalType":"address","name":"","type":"address"},{"internalType":"uint256","name":"","type":"uint256"}],"name":"streams","outputs":[{"internalType":"uint256","name":"movieId","type":"uint256"},{"internalType":"address","name":"user","type":"address"},{"internalType":"uint256","name":"startTime","type":"uint256"},{"internalType":"uint256","name":"lastSettledAt","type":"uint256"},{"internalType":"uint256","name":"totalSeconds","type":"uint256"},{"internalType":"uint256","name":"totalAmount","type":"uint256"},{"internalType":"bool","name":"active","type":"bool"}],"stateMutability":"view","type":"function"},{"inputs":[{"internalType":"uint256","name":"","type":"uint256"}],"name":"totalShares","outputs":[{"internalType":"uint256","name":"","type":"uint256"}],"stateMutability":"view","type":"function"},{"inputs":[{"internalType":"uint256","name":"movieId","type":"uint256"}],"name":"withdrawInvestorFunds","outputs":[],"stateMutability":"nonpayable","type":"function"}],"evm":{"bytecode":{"linkReferences":{},"object":"608060405234801561000f575f5ffd5b5060405161275b38038061275b833981810160405281019061003191906100d5565b8060015f6101000a81548173ffffffffffffffffffffffffffffffffffffffff021916908373ffffffffffffffffffffffffffffffffffffffff16021790555050610100565b5f5ffd5b5f73ffffffffffffffffffffffffffffffffffffffff82169050919050565b5f6100a48261007b565b9050919050565b6100b48161009a565b81146100be575f5ffd5b50565b5f815190506100cf816100ab565b92915050565b5f602082840312156100ea576100e9610077565b5b5f6100f7848285016100c1565b91505092915050565b61264e8061010d5f395ff3fe6080604052600436106100fd575f3560e01c806385d5089e11610094578063cc0c303911610063578063cc0c30391461031f578063e61dd2a614610349578063e7be516b14610386578063f19644e7146103ae578063f3b65fb2146103d6576100fd565b806385d5089e1461026f5780639b9d6cc114610297578063a1daf326146102d9578063c290d69114610303576100fd565b8063367c8022116100d0578063367c8022146101bf578063404ebf6c146101db5780634bde38c81461021b57806366fab57c14610245576100fd565b80630c51d55e1461010157806313f2dad01461013d57806320933c7b146101795780632afcf480146101a3575b5f5ffd5b34801561010c575f5ffd5b5061012760048036038101906101229190611a70565b6103fe565b6040516101349190611aed565b60405180910390f35b348015610148575f5ffd5b50610163600480360381019061015e9190611b06565b610446565b6040516101709190611b40565b60405180910390f35b348015610184575f5ffd5b5061018d61045b565b60405161019a9190611b40565b60405180910390f35b6101bd60048036038101906101b89190611b06565b610460565b005b6101d960048036038101906101d49190611b06565b61064a565b005b3480156101e6575f5ffd5b5061020160048036038101906101fc9190611b06565b610891565b604051610212959493929190611b73565b60405180910390f35b348015610226575f5ffd5b5061022f6108ee565b60405161023c9190611aed565b60405180910390f35b348015610250575f5ffd5b50610259610913565b6040516102669190611b40565b60405180910390f35b34801561027a575f5ffd5b5061029560048036038101906102909190611b06565b610918565b005b3480156102a2575f5ffd5b506102bd60048036038101906102b89190611bee565b610a1d565b6040516102d09796959493929190611c2c565b60405180910390f35b3480156102e4575f5ffd5b506102ed610a91565b6040516102fa9190611b40565b60405180910390f35b61031d60048036038101906103189190611b06565b610a96565b005b34801561032a575f5ffd5b50610333610d9c565b6040516103409190611b40565b60405180910390f35b348015610354575f5ffd5b5061036f600480360381019061036a9190611c99565b610da1565b60405161037d929190611cd7565b60405180910390f35b348015610391575f5ffd5b506103ac60048036038101906103a79190611b06565b610dcc565b005b3480156103b9575f5ffd5b506103d460048036038101906103cf9190611c99565b610f9b565b005b3480156103e1575f5ffd5b506103fc60048036038101906103f79190611b06565b611178565b005b6004602052815f5260405f208181548110610417575f80fd5b905f5260205f20015f915091509054906101000a900473ffffffffffffffffffffffffffffffffffffffff1681565b6005602052805f5260405f205f915090505481565b601e81565b60025f8281526020019081526020015f206004015f9054906101000a900460ff166104c0576040517f08c379a00000000000000000000000000000000000000000000000000000000081526004016104b790611d58565b60405180910390fd5b5f3411610502576040517f08c379a00000000000000000000000000000000000000000000000000000000081526004016104f990611dc0565b60405180910390fd5b5f60035f8381526020019081526020015f205f3373ffffffffffffffffffffffffffffffffffffffff1673ffffffffffffffffffffffffffffffffffffffff1681526020019081526020015f2090505f815f0154036105cb5760045f8381526020019081526020015f2033908060018154018082558091505060019003905f5260205f20015f9091909190916101000a81548173ffffffffffffffffffffffffffffffffffffffff021916908373ffffffffffffffffffffffffffffffffffffffff1602179055505b34815f015f8282546105dd9190611e0b565b925050819055503460055f8481526020019081526020015f205f8282546106049190611e0b565b925050819055507f89728d542d77fad9fe42c7d1f032c2b85f64cf938d754183b0e95359fbfac8a182333460405161063e93929190611e3e565b60405180910390a15050565b5f60065f3373ffffffffffffffffffffffffffffffffffffffff1673ffffffffffffffffffffffffffffffffffffffff1681526020019081526020015f205f8381526020019081526020015f209050806006015f9054906101000a900460ff166106e9576040517f08c379a00000000000000000000000000000000000000000000000000000000081526004016106e090611ebd565b60405180910390fd5b5f60025f8481526020019081526020015f209050806004015f9054906101000a900460ff1661074d576040517f08c379a000000000000000000000000000000000000000000000000000000000815260040161074490611d58565b60405180910390fd5b5f826003015490505f42905081811161079b576040517f08c379a000000000000000000000000000000000000000000000000000000000815260040161079290611f25565b60405180910390fd5b5f82826107a89190611f43565b90505f8460020154826107bb9190611f76565b90508034146107ff576040517f08c379a00000000000000000000000000000000000000000000000000000000081526004016107f690612001565b60405180910390fd5b82866003018190555081866004015f82825461081b9190611e0b565b9250508190555080866005015f8282546108359190611e0b565b9250508190555061084787338361132f565b7ff75ef534004e2767b99988281744fef8cd8aefdaf5faa2a65eb55b94b3323f4e8733868686866040516108809695949392919061201f565b60405180910390a150505050505050565b6002602052805f5260405f205f91509050805f015490806001015f9054906101000a900473ffffffffffffffffffffffffffffffffffffffff1690806002015490806003015490806004015f9054906101000a900460ff16905085565b60015f9054906101000a900473ffffffffffffffffffffffffffffffffffffffff1681565b600a81565b5f60065f3373ffffffffffffffffffffffffffffffffffffffff1673ffffffffffffffffffffffffffffffffffffffff1681526020019081526020015f205f8381526020019081526020015f209050806006015f9054906101000a900460ff166109b7576040517f08c379a00000000000000000000000000000000000000000000000000000000081526004016109ae90611ebd565b60405180910390fd5b5f816006015f6101000a81548160ff0219169083151502179055507f2f330f859f13a8feb40316964202b2761082c4a40a3ede01d89f496c0bd3248e82334284600401548560050154604051610a1195949392919061207e565b60405180910390a15050565b6006602052815f5260405f20602052805f5260405f205f9150915050805f015490806001015f9054906101000a900473ffffffffffffffffffffffffffffffffffffffff1690806002015490806003015490806004015490806005015490806006015f9054906101000a900460ff16905087565b5f5481565b60025f8281526020019081526020015f206004015f9054906101000a900460ff16610af6576040517f08c379a0000000000000000000000000000000000000000000000000000000008152600401610aed90611d58565b60405180910390fd5b5f3411610b38576040517f08c379a0000000000000000000000000000000000000000000000000000000008152600401610b2f90612119565b60405180910390fd5b5f60025f8381526020019081526020015f20905034816003015f828254610b5f9190611e0b565b925050819055505f6064603c34610b769190611f76565b610b809190612164565b90505f6064601e34610b929190611f76565b610b9c9190612164565b90505f6064600a34610bae9190611f76565b610bb89190612164565b90505f846001015f9054906101000a900473ffffffffffffffffffffffffffffffffffffffff1673ffffffffffffffffffffffffffffffffffffffff1684604051610c02906121c1565b5f6040518083038185875af1925050503d805f8114610c3c576040519150601f19603f3d011682016040523d82523d5f602084013e610c41565b606091505b5050905080610c85576040517f08c379a0000000000000000000000000000000000000000000000000000000008152600401610c7c9061221f565b60405180910390fd5b5f60015f9054906101000a900473ffffffffffffffffffffffffffffffffffffffff1673ffffffffffffffffffffffffffffffffffffffff1683604051610ccb906121c1565b5f6040518083038185875af1925050503d805f8114610d05576040519150601f19603f3d011682016040523d82523d5f602084013e610d0a565b606091505b5050905080610d4e576040517f08c379a0000000000000000000000000000000000000000000000000000000008152600401610d4590612287565b60405180910390fd5b610d588785611595565b7f4d3f6d68b42e1e039d6e7323b2b8bdeaf223f453882ce17a5984f4d6aabbdb33873334604051610d8b93929190611e3e565b60405180910390a150505050505050565b603c81565b6003602052815f5260405f20602052805f5260405f205f9150915050805f0154908060010154905082565b5f60035f8381526020019081526020015f205f3373ffffffffffffffffffffffffffffffffffffffff1673ffffffffffffffffffffffffffffffffffffffff1681526020019081526020015f206001015490505f8111610e61576040517f08c379a0000000000000000000000000000000000000000000000000000000008152600401610e58906122ef565b60405180910390fd5b5f60035f8481526020019081526020015f205f3373ffffffffffffffffffffffffffffffffffffffff1673ffffffffffffffffffffffffffffffffffffffff1681526020019081526020015f20600101819055505f3373ffffffffffffffffffffffffffffffffffffffff1682604051610eda906121c1565b5f6040518083038185875af1925050503d805f8114610f14576040519150601f19603f3d011682016040523d82523d5f602084013e610f19565b606091505b5050905080610f5d576040517f08c379a0000000000000000000000000000000000000000000000000000000008152600401610f5490612357565b60405180910390fd5b7f7fcf532c15f0a6db0bd6d0e038bea71d30d808c7d98cb3bf7268a95bf5081b653383604051610f8e929190612375565b60405180910390a1505050565b5f8211610fdd576040517f08c379a0000000000000000000000000000000000000000000000000000000008152600401610fd4906123e6565b60405180910390fd5b5f73ffffffffffffffffffffffffffffffffffffffff168173ffffffffffffffffffffffffffffffffffffffff160361104b576040517f08c379a00000000000000000000000000000000000000000000000000000000081526004016110429061244e565b60405180910390fd5b5f5f81548092919061105c9061246c565b91905055506040518060a001604052805f5481526020018273ffffffffffffffffffffffffffffffffffffffff1681526020018381526020015f81526020016001151581525060025f5f5481526020019081526020015f205f820151815f01556020820151816001015f6101000a81548173ffffffffffffffffffffffffffffffffffffffff021916908373ffffffffffffffffffffffffffffffffffffffff16021790555060408201518160020155606082015181600301556080820151816004015f6101000a81548160ff0219169083151502179055509050507ffd9cd32fe11753995ce22ce976e205ca0febe46e459c83ef62fb9affdae82d445f54828460405161116c93929190611e3e565b60405180910390a15050565b60025f8281526020019081526020015f206004015f9054906101000a900460ff166111d8576040517f08c379a00000000000000000000000000000000000000000000000000000000081526004016111cf90611d58565b60405180910390fd5b5f60065f3373ffffffffffffffffffffffffffffffffffffffff1673ffffffffffffffffffffffffffffffffffffffff1681526020019081526020015f205f8381526020019081526020015f209050806006015f9054906101000a900460ff1615611278576040517f08c379a000000000000000000000000000000000000000000000000000000000815260040161126f906124fd565b60405180910390fd5b81815f018190555033816001015f6101000a81548173ffffffffffffffffffffffffffffffffffffffff021916908373ffffffffffffffffffffffffffffffffffffffff1602179055504281600201819055504281600301819055506001816006015f6101000a81548160ff0219169083151502179055507f765ee4960f08aad7cf496291097a74b71ac25b0cda25bfce2a1651c822fb573882334260405161132393929190611e3e565b60405180910390a15050565b5f60025f8581526020019081526020015f20905081816003015f8282546113569190611e0b565b925050819055505f6064603c8461136d9190611f76565b6113779190612164565b90505f6064601e856113899190611f76565b6113939190612164565b90505f6064600a866113a59190611f76565b6113af9190612164565b90505f846001015f9054906101000a900473ffffffffffffffffffffffffffffffffffffffff1673ffffffffffffffffffffffffffffffffffffffff16846040516113f9906121c1565b5f6040518083038185875af1925050503d805f8114611433576040519150601f19603f3d011682016040523d82523d5f602084013e611438565b606091505b505090508061147c576040517f08c379a00000000000000000000000000000000000000000000000000000000081526004016114739061221f565b60405180910390fd5b5f60015f9054906101000a900473ffffffffffffffffffffffffffffffffffffffff1673ffffffffffffffffffffffffffffffffffffffff16836040516114c2906121c1565b5f6040518083038185875af1925050503d805f81146114fc576040519150601f19603f3d011682016040523d82523d5f602084013e611501565b606091505b5050905080611545576040517f08c379a000000000000000000000000000000000000000000000000000000000815260040161153c90612287565b60405180910390fd5b61154f8985611595565b7f4d3f6d68b42e1e039d6e7323b2b8bdeaf223f453882ce17a5984f4d6aabbdb3389898960405161158293929190611e3e565b60405180910390a1505050505050505050565b5f60055f8481526020019081526020015f205490505f8103611681575f60015f9054906101000a900473ffffffffffffffffffffffffffffffffffffffff1673ffffffffffffffffffffffffffffffffffffffff16836040516115f7906121c1565b5f6040518083038185875af1925050503d805f8114611631576040519150601f19603f3d011682016040523d82523d5f602084013e611636565b606091505b505090508061167a576040517f08c379a000000000000000000000000000000000000000000000000000000000815260040161167190612287565b60405180910390fd5b5050611a35565b5f60045f8581526020019081526020015f2090505f818054905090505f5f5f90505b82811015611757575f60035f8981526020019081526020015f205f8684815481106116d1576116d061251b565b5b905f5260205f20015f9054906101000a900473ffffffffffffffffffffffffffffffffffffffff1673ffffffffffffffffffffffffffffffffffffffff1673ffffffffffffffffffffffffffffffffffffffff1681526020019081526020015f205f0154111561174a5781806117469061246c565b9250505b80806001019150506116a3565b505f8103611832575f60015f9054906101000a900473ffffffffffffffffffffffffffffffffffffffff1673ffffffffffffffffffffffffffffffffffffffff16866040516117a5906121c1565b5f6040518083038185875af1925050503d805f81146117df576040519150601f19603f3d011682016040523d82523d5f602084013e6117e4565b606091505b5050905080611828576040517f08c379a000000000000000000000000000000000000000000000000000000000815260040161181f90612287565b60405180910390fd5b5050505050611a35565b5f5f5f5f90505b848110156119eb575f8682815481106118555761185461251b565b5b905f5260205f20015f9054906101000a900473ffffffffffffffffffffffffffffffffffffffff1690505f60035f8c81526020019081526020015f205f8373ffffffffffffffffffffffffffffffffffffffff1673ffffffffffffffffffffffffffffffffffffffff1681526020019081526020015f2090505f815f0154036118df5750506119de565b83806118ea9061246c565b9450505f8685146119145789825f01548c6119059190611f76565b61190f9190612164565b611921565b858b6119209190611f43565b5b9050808661192f9190611e0b565b95505f8373ffffffffffffffffffffffffffffffffffffffff1682604051611956906121c1565b5f6040518083038185875af1925050503d805f8114611990576040519150601f19603f3d011682016040523d82523d5f602084013e611995565b606091505b50509050806119d9576040517f08c379a00000000000000000000000000000000000000000000000000000000081526004016119d090612592565b60405180910390fd5b505050505b8080600101915050611839565b50868214611a2e576040517f08c379a0000000000000000000000000000000000000000000000000000000008152600401611a25906125fa565b60405180910390fd5b5050505050505b5050565b5f5ffd5b5f819050919050565b611a4f81611a3d565b8114611a59575f5ffd5b50565b5f81359050611a6a81611a46565b92915050565b5f5f60408385031215611a8657611a85611a39565b5b5f611a9385828601611a5c565b9250506020611aa485828601611a5c565b9150509250929050565b5f73ffffffffffffffffffffffffffffffffffffffff82169050919050565b5f611ad782611aae565b9050919050565b611ae781611acd565b82525050565b5f602082019050611b005f830184611ade565b92915050565b5f60208284031215611b1b57611b1a611a39565b5b5f611b2884828501611a5c565b91505092915050565b611b3a81611a3d565b82525050565b5f602082019050611b535f830184611b31565b92915050565b5f8115159050919050565b611b6d81611b59565b82525050565b5f60a082019050611b865f830188611b31565b611b936020830187611ade565b611ba06040830186611b31565b611bad6060830185611b31565b611bba6080830184611b64565b9695505050505050565b611bcd81611acd565b8114611bd7575f5ffd5b50565b5f81359050611be881611bc4565b92915050565b5f5f60408385031215611c0457611c03611a39565b5b5f611c1185828601611bda565b9250506020611c2285828601611a5c565b9150509250929050565b5f60e082019050611c3f5f83018a611b31565b611c4c6020830189611ade565b611c596040830188611b31565b611c666060830187611b31565b611c736080830186611b31565b611c8060a0830185611b31565b611c8d60c0830184611b64565b98975050505050505050565b5f5f60408385031215611caf57611cae611a39565b5b5f611cbc85828601611a5c565b9250506020611ccd85828601611bda565b9150509250929050565b5f604082019050611cea5f830185611b31565b611cf76020830184611b31565b9392505050565b5f82825260208201905092915050565b7f4d6f766965206e6f7420666f756e6400000000000000000000000000000000005f82015250565b5f611d42600f83611cfe565b9150611d4d82611d0e565b602082019050919050565b5f6020820190508181035f830152611d6f81611d36565b9050919050565b7f4e6f2066756e64730000000000000000000000000000000000000000000000005f82015250565b5f611daa600883611cfe565b9150611db582611d76565b602082019050919050565b5f6020820190508181035f830152611dd781611d9e565b9050919050565b7f4e487b71000000000000000000000000000000000000000000000000000000005f52601160045260245ffd5b5f611e1582611a3d565b9150611e2083611a3d565b9250828201905080821115611e3857611e37611dde565b5b92915050565b5f606082019050611e515f830186611b31565b611e5e6020830185611ade565b611e6b6040830184611b31565b949350505050565b7f4e6f206163746976652073747265616d000000000000000000000000000000005f82015250565b5f611ea7601083611cfe565b9150611eb282611e73565b602082019050919050565b5f6020820190508181035f830152611ed481611e9b565b9050919050565b7f4e6f7468696e6720746f20736574746c650000000000000000000000000000005f82015250565b5f611f0f601183611cfe565b9150611f1a82611edb565b602082019050919050565b5f6020820190508181035f830152611f3c81611f03565b9050919050565b5f611f4d82611a3d565b9150611f5883611a3d565b9250828203905081811115611f7057611f6f611dde565b5b92915050565b5f611f8082611a3d565b9150611f8b83611a3d565b9250828202611f9981611a3d565b91508282048414831517611fb057611faf611dde565b5b5092915050565b7f496e636f7272656374207061796d656e740000000000000000000000000000005f82015250565b5f611feb601183611cfe565b9150611ff682611fb7565b602082019050919050565b5f6020820190508181035f83015261201881611fdf565b9050919050565b5f60c0820190506120325f830189611b31565b61203f6020830188611ade565b61204c6040830187611b31565b6120596060830186611b31565b6120666080830185611b31565b61207360a0830184611b31565b979650505050505050565b5f60a0820190506120915f830188611b31565b61209e6020830187611ade565b6120ab6040830186611b31565b6120b86060830185611b31565b6120c56080830184611b31565b9695505050505050565b7f5061796d656e74207265717569726564000000000000000000000000000000005f82015250565b5f612103601083611cfe565b915061210e826120cf565b602082019050919050565b5f6020820190508181035f830152612130816120f7565b9050919050565b7f4e487b71000000000000000000000000000000000000000000000000000000005f52601260045260245ffd5b5f61216e82611a3d565b915061217983611a3d565b92508261218957612188612137565b5b828204905092915050565b5f81905092915050565b50565b5f6121ac5f83612194565b91506121b78261219e565b5f82019050919050565b5f6121cb826121a1565b9150819050919050565b7f43726561746f72207472616e73666572206661696c65640000000000000000005f82015250565b5f612209601783611cfe565b9150612214826121d5565b602082019050919050565b5f6020820190508181035f830152612236816121fd565b9050919050565b7f506c6174666f726d207472616e73666572206661696c656400000000000000005f82015250565b5f612271601883611cfe565b915061227c8261223d565b602082019050919050565b5f6020820190508181035f83015261229e81612265565b9050919050565b7f4e6f2062616c616e6365000000000000000000000000000000000000000000005f82015250565b5f6122d9600a83611cfe565b91506122e4826122a5565b602082019050919050565b5f6020820190508181035f830152612306816122cd565b9050919050565b7f5769746864726177616c207472616e73666572206661696c65640000000000005f82015250565b5f612341601a83611cfe565b915061234c8261230d565b602082019050919050565b5f6020820190508181035f83015261236e81612335565b9050919050565b5f6040820190506123885f830185611ade565b6123956020830184611b31565b9392505050565b7f496e76616c6964207072696365000000000000000000000000000000000000005f82015250565b5f6123d0600d83611cfe565b91506123db8261239c565b602082019050919050565b5f6020820190508181035f8301526123fd816123c4565b9050919050565b7f496e76616c69642063726561746f722077616c6c6574000000000000000000005f82015250565b5f612438601683611cfe565b915061244382612404565b602082019050919050565b5f6020820190508181035f8301526124658161242c565b9050919050565b5f61247682611a3d565b91507fffffffffffffffffffffffffffffffffffffffffffffffffffffffffffffffff82036124a8576124a7611dde565b5b600182019050919050565b7f53747265616d20616c72656164792061637469766500000000000000000000005f82015250565b5f6124e7601583611cfe565b91506124f2826124b3565b602082019050919050565b5f6020820190508181035f830152612514816124db565b9050919050565b7f4e487b71000000000000000000000000000000000000000000000000000000005f52603260045260245ffd5b7f496e766573746f72207472616e73666572206661696c656400000000000000005f82015250565b5f61257c601883611cfe565b915061258782612548565b602082019050919050565b5f6020820190508181035f8301526125a981612570565b9050919050565b7f446973747269627574696f6e206d69736d6174636800000000000000000000005f82015250565b5f6125e4601583611cfe565b91506125ef826125b0565b602082019050919050565b5f6020820190508181035f830152612611816125d8565b905091905056fea2646970667358221220bff35404ba7febbac706371eb2f20689e6219fddc2dae7cf6a8f489ab03d22ea64736f6c634300081c0033","opcodes":"PUSH1 0x80 PUSH1 0x40 MSTORE CALLVALUE DUP1 ISZERO PUSH2 0xF JUMPI PUSH0 PUSH0 REVERT JUMPDEST POP PUSH1 0x40 MLOAD PUSH2 0x275B CODESIZE SUB DUP1 PUSH2 0x275B DUP4 CODECOPY DUP2 DUP2 ADD PUSH1 0x40 MSTORE DUP2 ADD SWAP1 PUSH2 0x31 SWAP2 SWAP1 PUSH2 0xD5 JUMP JUMPDEST DUP1 PUSH1 0x1 PUSH0 PUSH2 0x100 EXP DUP2 SLOAD DUP2 PUSH20 0xFFFFFFFFFFFFFFFFFFFFFFFFFFFFFFFFFFFFFFFF MUL NOT AND SWAP1 DUP4 PUSH20 0xFFFFFFFFFFFFFFFFFFFFFFFFFFFFFFFFFFFFFFFF AND MUL OR SWAP1 SSTORE POP POP PUSH2 0x100 JUMP JUMPDEST PUSH0 PUSH0 REVERT JUMPDEST PUSH0 PUSH20 0xFFFFFFFFFFFFFFFFFFFFFFFFFFFFFFFFFFFFFFFF DUP3 AND SWAP1 POP SWAP2 SWAP1 POP JUMP JUMPDEST PUSH0 PUSH2 0xA4 DUP3 PUSH2 0x7B JUMP JUMPDEST SWAP1 POP SWAP2 SWAP1 POP JUMP JUMPDEST PUSH2 0xB4 DUP2 PUSH2 0x9A JUMP JUMPDEST DUP2 EQ PUSH2 0xBE JUMPI PUSH0 PUSH0 REVERT JUMPDEST POP JUMP JUMPDEST PUSH0 DUP2 MLOAD SWAP1 POP PUSH2 0xCF DUP2 PUSH2 0xAB JUMP JUMPDEST SWAP3 SWAP2 POP POP JUMP JUMPDEST PUSH0 PUSH1 0x20 DUP3 DUP5 SUB SLT ISZERO PUSH2 0xEA JUMPI PUSH2 0xE9 PUSH2 0x77 JUMP JUMPDEST JUMPDEST PUSH0 PUSH2 0xF7 DUP5 DUP3 DUP6 ADD PUSH2 0xC1 JUMP JUMPDEST SWAP2 POP POP SWAP3 SWAP2 POP POP JUMP JUMPDEST PUSH2 0x264E DUP1 PUSH2 0x10D PUSH0 CODECOPY PUSH0 RETURN INVALID PUSH1 0x80 PUSH1 0x40 MSTORE PUSH1 0x4 CALLDATASIZE LT PUSH2 0xFD JUMPI PUSH0 CALLDATALOAD PUSH1 0xE0 SHR DUP1 PUSH4 0x85D5089E GT PUSH2 0x94 JUMPI DUP1 PUSH4 0xCC0C3039 GT PUSH2 0x63 JUMPI DUP1 PUSH4 0xCC0C3039 EQ PUSH2 0x31F JUMPI DUP1 PUSH4 0xE61DD2A6 EQ PUSH2 0x349 JUMPI DUP1 PUSH4 0xE7BE516B EQ PUSH2 0x386 JUMPI DUP1 PUSH4 0xF19644E7 EQ PUSH2 0x3AE JUMPI DUP1 PUSH4 0xF3B65FB2 EQ PUSH2 0x3D6 JUMPI PUSH2 0xFD JUMP JUMPDEST DUP1 PUSH4 0x85D5089E EQ PUSH2 0x26F JUMPI DUP1 PUSH4 0x9B9D6CC1 EQ PUSH2 0x297 JUMPI DUP1 PUSH4 0xA1DAF326 EQ PUSH2 0x2D9 JUMPI DUP1 PUSH4 0xC290D691 EQ PUSH2 0x303 JUMPI PUSH2 0xFD JUMP JUMPDEST DUP1 PUSH4 0x367C8022 GT PUSH2 0xD0 JUMPI DUP1 PUSH4 0x367C8022 EQ PUSH2 0x1BF JUMPI DUP1 PUSH4 0x404EBF6C EQ PUSH2 0x1DB JUMPI DUP1 PUSH4 0x4BDE38C8 EQ PUSH2 0x21B JUMPI DUP1 PUSH4 0x66FAB57C EQ PUSH2 0x245 JUMPI PUSH2 0xFD JUMP JUMPDEST DUP1 PUSH4 0xC51D55E EQ PUSH2 0x101 JUMPI DUP1 PUSH4 0x13F2DAD0 EQ PUSH2 0x13D JUMPI DUP1 PUSH4 0x20933C7B EQ PUSH2 0x179 JUMPI DUP1 PUSH4 0x2AFCF480 EQ PUSH2 0x1A3 JUMPI JUMPDEST PUSH0 PUSH0 REVERT JUMPDEST CALLVALUE DUP1 ISZERO PUSH2 0x10C JUMPI PUSH0 PUSH0 REVERT JUMPDEST POP PUSH2 0x127 PUSH1 0x4 DUP1 CALLDATASIZE SUB DUP2 ADD SWAP1 PUSH2 0x122 SWAP2 SWAP1 PUSH2 0x1A70 JUMP JUMPDEST PUSH2 0x3FE JUMP JUMPDEST PUSH1 0x40 MLOAD PUSH2 0x134 SWAP2 SWAP1 PUSH2 0x1AED JUMP JUMPDEST PUSH1 0x40 MLOAD DUP1 SWAP2 SUB SWAP1 RETURN JUMPDEST CALLVALUE DUP1 ISZERO PUSH2 0x148 JUMPI PUSH0 PUSH0 REVERT JUMPDEST POP PUSH2 0x163 PUSH1 0x4 DUP1 CALLDATASIZE SUB DUP2 ADD SWAP1 PUSH2 0x15E SWAP2 SWAP1 PUSH2 0x1B06 JUMP JUMPDEST PUSH2 0x446 JUMP JUMPDEST PUSH1 0x40 MLOAD PUSH2 0x170 SWAP2 SWAP1 PUSH2 0x1B40 JUMP JUMPDEST PUSH1 0x40 MLOAD DUP1 SWAP2 SUB SWAP1 RETURN JUMPDEST CALLVALUE DUP1 ISZERO PUSH2 0x184 JUMPI PUSH0 PUSH0 REVERT JUMPDEST POP PUSH2 0x18D PUSH2 0x45B JUMP JUMPDEST PUSH1 0x40 MLOAD PUSH2 0x19A SWAP2 SWAP1 PUSH2 0x1B40 JUMP JUMPDEST PUSH1 0x40 MLOAD DUP1 SWAP2 SUB SWAP1 RETURN JUMPDEST PUSH2 0x1BD PUSH1 0x4 DUP1 CALLDATASIZE SUB DUP2 ADD SWAP1 PUSH2 0x1B8 SWAP2 SWAP1 PUSH2 0x1B06 JUMP JUMPDEST PUSH2 0x460 JUMP JUMPDEST STOP JUMPDEST PUSH2 0x1D9 PUSH1 0x4 DUP1 CALLDATASIZE SUB DUP2 ADD SWAP1 PUSH2 0x1D4 SWAP2 SWAP1 PUSH2 0x1B06 JUMP JUMPDEST PUSH2 0x64A JUMP JUMPDEST STOP JUMPDEST CALLVALUE DUP1 ISZERO PUSH2 0x1E6 JUMPI PUSH0 PUSH0 REVERT JUMPDEST POP PUSH2 0x201 PUSH1 0x4 DUP1 CALLDATASIZE SUB DUP2 ADD SWAP1 PUSH2 0x1FC SWAP2 SWAP1 PUSH2 0x1B06 JUMP JUMPDEST PUSH2 0x891 JUMP JUMPDEST PUSH1 0x40 MLOAD PUSH2 0x212 SWAP6 SWAP5 SWAP4 SWAP3 SWAP2 SWAP1 PUSH2 0x1B73 JUMP JUMPDEST PUSH1 0x40 MLOAD DUP1 SWAP2 SUB SWAP1 RETURN JUMPDEST CALLVALUE DUP1 ISZERO PUSH2 0x226 JUMPI PUSH0 PUSH0 REVERT JUMPDEST POP PUSH2 0x22F PUSH2 0x8EE JUMP JUMPDEST PUSH1 0x40 MLOAD PUSH2 0x23C SWAP2 SWAP1 PUSH2 0x1AED JUMP JUMPDEST PUSH1 0x40 MLOAD DUP1 SWAP2 SUB SWAP1 RETURN JUMPDEST CALLVALUE DUP1 ISZERO PUSH2 0x250 JUMPI PUSH0 PUSH0 REVERT JUMPDEST POP PUSH2 0x259 PUSH2 0x913 JUMP JUMPDEST PUSH1 0x40 MLOAD PUSH2 0x266 SWAP2 SWAP1 PUSH2 0x1B40 JUMP JUMPDEST PUSH1 0x40 MLOAD DUP1 SWAP2 SUB SWAP1 RETURN JUMPDEST CALLVALUE DUP1 ISZERO PUSH2 0x27A JUMPI PUSH0 PUSH0 REVERT JUMPDEST POP PUSH2 0x295 PUSH1 0x4 DUP1 CALLDATASIZE SUB DUP2 ADD SWAP1 PUSH2 0x290 SWAP2 SWAP1 PUSH2 0x1B06 JUMP JUMPDEST PUSH2 0x918 JUMP JUMPDEST STOP JUMPDEST CALLVALUE DUP1 ISZERO PUSH2 0x2A2 JUMPI PUSH0 PUSH0 REVERT JUMPDEST POP PUSH2 0x2BD PUSH1 0x4 DUP1 CALLDATASIZE SUB DUP2 ADD SWAP1 PUSH2 0x2B8 SWAP2 SWAP1 PUSH2 0x1BEE JUMP JUMPDEST PUSH2 0xA1D JUMP JUMPDEST PUSH1 0x40 MLOAD PUSH2 0x2D0 SWAP8 SWAP7 SWAP6 SWAP5 SWAP4 SWAP3 SWAP2 SWAP1 PUSH2 0x1C2C JUMP JUMPDEST PUSH1 0x40 MLOAD DUP1 SWAP2 SUB SWAP1 RETURN JUMPDEST CALLVALUE DUP1 ISZERO PUSH2 0x2E4 JUMPI PUSH0 PUSH0 REVERT JUMPDEST POP PUSH2 0x2ED PUSH2 0xA91 JUMP JUMPDEST PUSH1 0x40 MLOAD PUSH2 0x2FA SWAP2 SWAP1 PUSH2 0x1B40 JUMP JUMPDEST PUSH1 0x40 MLOAD DUP1 SWAP2 SUB SWAP1 RETURN JUMPDEST PUSH2 0x31D PUSH1 0x4 DUP1 CALLDATASIZE SUB DUP2 ADD SWAP1 PUSH2 0x318 SWAP2 SWAP1 PUSH2 0x1B06 JUMP JUMPDEST PUSH2 0xA96 JUMP JUMPDEST STOP JUMPDEST CALLVALUE DUP1 ISZERO PUSH2 0x32A JUMPI PUSH0 PUSH0 REVERT JUMPDEST POP PUSH2 0x333 PUSH2 0xD9C JUMP JUMPDEST PUSH1 0x40 MLOAD PUSH2 0x340 SWAP2 SWAP1 PUSH2 0x1B40 JUMP JUMPDEST PUSH1 0x40 MLOAD DUP1 SWAP2 SUB SWAP1 RETURN JUMPDEST CALLVALUE DUP1 ISZERO PUSH2 0x354 JUMPI PUSH0 PUSH0 REVERT JUMPDEST POP PUSH2 0x36F PUSH1 0x4 DUP1 CALLDATASIZE SUB DUP2 ADD SWAP1 PUSH2 0x36A SWAP2 SWAP1 PUSH2 0x1C99 JUMP JUMPDEST PUSH2 0xDA1 JUMP JUMPDEST PUSH1 0x40 MLOAD PUSH2 0x37D SWAP3 SWAP2 SWAP1 PUSH2 0x1CD7 JUMP JUMPDEST PUSH1 0x40 MLOAD DUP1 SWAP2 SUB SWAP1 RETURN JUMPDEST CALLVALUE DUP1 ISZERO PUSH2 0x391 JUMPI PUSH0 PUSH0 REVERT JUMPDEST POP PUSH2 0x3AC PUSH1 0x4 DUP1 CALLDATASIZE SUB DUP2 ADD SWAP1 PUSH2 0x3A7 SWAP2 SWAP1 PUSH2 0x1B06 JUMP JUMPDEST PUSH2 0xDCC JUMP JUMPDEST STOP JUMPDEST CALLVALUE DUP1 ISZERO PUSH2 0x3B9 JUMPI PUSH0 PUSH0 REVERT JUMPDEST POP PUSH2 0x3D4 PUSH1 0x4 DUP1 CALLDATASIZE SUB DUP2 ADD SWAP1 PUSH2 0x3CF SWAP2 SWAP1 PUSH2 0x1C99 JUMP JUMPDEST PUSH2 0xF9B JUMP JUMPDEST STOP JUMPDEST CALLVALUE DUP1 ISZERO PUSH2 0x3E1 JUMPI PUSH0 PUSH0 REVERT JUMPDEST POP PUSH2 0x3FC PUSH1 0x4 DUP1 CALLDATASIZE SUB DUP2 ADD SWAP1 PUSH2 0x3F7 SWAP2 SWAP1 PUSH2 0x1B06 JUMP JUMPDEST PUSH2 0x1178 JUMP JUMPDEST STOP JUMPDEST PUSH1 0x4 PUSH1 0x20 MSTORE DUP2 PUSH0 MSTORE PUSH1 0x40 PUSH0 KECCAK256 DUP2 DUP2 SLOAD DUP2 LT PUSH2 0x417 JUMPI PUSH0 DUP1 REVERT JUMPDEST SWAP1 PUSH0 MSTORE PUSH1 0x20 PUSH0 KECCAK256 ADD PUSH0 SWAP2 POP SWAP2 POP SWAP1 SLOAD SWAP1 PUSH2 0x100 EXP SWAP1 DIV PUSH20 0xFFFFFFFFFFFFFFFFFFFFFFFFFFFFFFFFFFFFFFFF AND DUP2 JUMP JUMPDEST PUSH1 0x5 PUSH1 0x20 MSTORE DUP1 PUSH0 MSTORE PUSH1 0x40 PUSH0 KECCAK256 PUSH0 SWAP2 POP SWAP1 POP SLOAD DUP2 JUMP JUMPDEST PUSH1 0x1E DUP2 JUMP JUMPDEST PUSH1 0x2 PUSH0 DUP3 DUP2 MSTORE PUSH1 0x20 ADD SWAP1 DUP2 MSTORE PUSH1 0x20 ADD PUSH0 KECCAK256 PUSH1 0x4 ADD PUSH0 SWAP1 SLOAD SWAP1 PUSH2 0x100 EXP SWAP1 DIV PUSH1 0xFF AND PUSH2 0x4C0 JUMPI PUSH1 0x40 MLOAD PUSH32 0x8C379A000000000000000000000000000000000000000000000000000000000 DUP2 MSTORE PUSH1 0x4 ADD PUSH2 0x4B7 SWAP1 PUSH2 0x1D58 JUMP JUMPDEST PUSH1 0x40 MLOAD DUP1 SWAP2 SUB SWAP1 REVERT JUMPDEST PUSH0 CALLVALUE GT PUSH2 0x502 JUMPI PUSH1 0x40 MLOAD PUSH32 0x8C379A000000000000000000000000000000000000000000000000000000000 DUP2 MSTORE PUSH1 0x4 ADD PUSH2 0x4F9 SWAP1 PUSH2 0x1DC0 JUMP JUMPDEST PUSH1 0x40 MLOAD DUP1 SWAP2 SUB SWAP1 REVERT JUMPDEST PUSH0 PUSH1 0x3 PUSH0 DUP4 DUP2 MSTORE PUSH1 0x20 ADD SWAP1 DUP2 MSTORE PUSH1 0x20 ADD PUSH0 KECCAK256 PUSH0 CALLER PUSH20 0xFFFFFFFFFFFFFFFFFFFFFFFFFFFFFFFFFFFFFFFF AND PUSH20 0xFFFFFFFFFFFFFFFFFFFFFFFFFFFFFFFFFFFFFFFF AND DUP2 MSTORE PUSH1 0x20 ADD SWAP1 DUP2 MSTORE PUSH1 0x20 ADD PUSH0 KECCAK256 SWAP1 POP PUSH0 DUP2 PUSH0 ADD SLOAD SUB PUSH2 0x5CB JUMPI PUSH1 0x4 PUSH0 DUP4 DUP2 MSTORE PUSH1 0x20 ADD SWAP1 DUP2 MSTORE PUSH1 0x20 ADD PUSH0 KECCAK256 CALLER SWAP1 DUP1 PUSH1 0x1 DUP2 SLOAD ADD DUP1 DUP3 SSTORE DUP1 SWAP2 POP POP PUSH1 0x1 SWAP1 SUB SWAP1 PUSH0 MSTORE PUSH1 0x20 PUSH0 KECCAK256 ADD PUSH0 SWAP1 SWAP2 SWAP1 SWAP2 SWAP1 SWAP2 PUSH2 0x100 EXP DUP2 SLOAD DUP2 PUSH20 0xFFFFFFFFFFFFFFFFFFFFFFFFFFFFFFFFFFFFFFFF MUL NOT AND SWAP1 DUP4 PUSH20 0xFFFFFFFFFFFFFFFFFFFFFFFFFFFFFFFFFFFFFFFF AND MUL OR SWAP1 SSTORE POP JUMPDEST CALLVALUE DUP2 PUSH0 ADD PUSH0 DUP3 DUP3 SLOAD PUSH2 0x5DD SWAP2 SWAP1 PUSH2 0x1E0B JUMP JUMPDEST SWAP3 POP POP DUP2 SWAP1 SSTORE POP CALLVALUE PUSH1 0x5 PUSH0 DUP5 DUP2 MSTORE PUSH1 0x20 ADD SWAP1 DUP2 MSTORE PUSH1 0x20 ADD PUSH0 KECCAK256 PUSH0 DUP3 DUP3 SLOAD PUSH2 0x604 SWAP2 SWAP1 PUSH2 0x1E0B JUMP JUMPDEST SWAP3 POP POP DUP2 SWAP1 SSTORE POP PUSH32 0x89728D542D77FAD9FE42C7D1F032C2B85F64CF938D754183B0E95359FBFAC8A1 DUP3 CALLER CALLVALUE PUSH1 0x40 MLOAD PUSH2 0x63E SWAP4 SWAP3 SWAP2 SWAP1 PUSH2 0x1E3E JUMP JUMPDEST PUSH1 0x40 MLOAD DUP1 SWAP2 SUB SWAP1 LOG1 POP POP JUMP JUMPDEST PUSH0 PUSH1 0x6 PUSH0 CALLER PUSH20 0xFFFFFFFFFFFFFFFFFFFFFFFFFFFFFFFFFFFFFFFF AND PUSH20 0xFFFFFFFFFFFFFFFFFFFFFFFFFFFFFFFFFFFFFFFF AND DUP2 MSTORE PUSH1 0x20 ADD SWAP1 DUP2 MSTORE PUSH1 0x20 ADD PUSH0 KECCAK256 PUSH0 DUP4 DUP2 MSTORE PUSH1 0x20 ADD SWAP1 DUP2 MSTORE PUSH1 0x20 ADD PUSH0 KECCAK256 SWAP1 POP DUP1 PUSH1 0x6 ADD PUSH0 SWAP1 SLOAD SWAP1 PUSH2 0x100 EXP SWAP1 DIV PUSH1 0xFF AND PUSH2 0x6E9 JUMPI PUSH1 0x40 MLOAD PUSH32 0x8C379A000000000000000000000000000000000000000000000000000000000 DUP2 MSTORE PUSH1 0x4 ADD PUSH2 0x6E0 SWAP1 PUSH2 0x1EBD JUMP JUMPDEST PUSH1 0x40 MLOAD DUP1 SWAP2 SUB SWAP1 REVERT JUMPDEST PUSH0 PUSH1 0x2 PUSH0 DUP5 DUP2 MSTORE PUSH1 0x20 ADD SWAP1 DUP2 MSTORE PUSH1 0x20 ADD PUSH0 KECCAK256 SWAP1 POP DUP1 PUSH1 0x4 ADD PUSH0 SWAP1 SLOAD SWAP1 PUSH2 0x100 EXP SWAP1 DIV PUSH1 0xFF AND PUSH2 0x74D JUMPI PUSH1 0x40 MLOAD PUSH32 0x8C379A000000000000000000000000000000000000000000000000000000000 DUP2 MSTORE PUSH1 0x4 ADD PUSH2 0x744 SWAP1 PUSH2 0x1D58 JUMP JUMPDEST PUSH1 0x40 MLOAD DUP1 SWAP2 SUB SWAP1 REVERT JUMPDEST PUSH0 DUP3 PUSH1 0x3 ADD SLOAD SWAP1 POP PUSH0 TIMESTAMP SWAP1 POP DUP2 DUP2 GT PUSH2 0x79B JUMPI PUSH1 0x40 MLOAD PUSH32 0x8C379A000000000000000000000000000000000000000000000000000000000 DUP2 MSTORE PUSH1 0x4 ADD PUSH2 0x792 SWAP1 PUSH2 0x1F25 JUMP JUMPDEST PUSH1 0x40 MLOAD DUP1 SWAP2 SUB SWAP1 REVERT JUMPDEST PUSH0 DUP3 DUP3 PUSH2 0x7A8 SWAP2 SWAP1 PUSH2 0x1F43 JUMP JUMPDEST SWAP1 POP PUSH0 DUP5 PUSH1 0x2 ADD SLOAD DUP3 PUSH2 0x7BB SWAP2 SWAP1 PUSH2 0x1F76 JUMP JUMPDEST SWAP1 POP DUP1 CALLVALUE EQ PUSH2 0x7FF JUMPI PUSH1 0x40 MLOAD PUSH32 0x8C379A000000000000000000000000000000000000000000000000000000000 DUP2 MSTORE PUSH1 0x4 ADD PUSH2 0x7F6 SWAP1 PUSH2 0x2001 JUMP JUMPDEST PUSH1 0x40 MLOAD DUP1 SWAP2 SUB SWAP1 REVERT JUMPDEST DUP3 DUP7 PUSH1 0x3 ADD DUP2 SWAP1 SSTORE POP DUP2 DUP7 PUSH1 0x4 ADD PUSH0 DUP3 DUP3 SLOAD PUSH2 0x81B SWAP2 SWAP1 PUSH2 0x1E0B JUMP JUMPDEST SWAP3 POP POP DUP2 SWAP1 SSTORE POP DUP1 DUP7 PUSH1 0x5 ADD PUSH0 DUP3 DUP3 SLOAD PUSH2 0x835 SWAP2 SWAP1 PUSH2 0x1E0B JUMP JUMPDEST SWAP3 POP POP DUP2 SWAP1 SSTORE POP PUSH2 0x847 DUP8 CALLER DUP4 PUSH2 0x132F JUMP JUMPDEST PUSH32 0xF75EF534004E2767B99988281744FEF8CD8AEFDAF5FAA2A65EB55B94B3323F4E DUP8 CALLER DUP7 DUP7 DUP7 DUP7 PUSH1 0x40 MLOAD PUSH2 0x880 SWAP7 SWAP6 SWAP5 SWAP4 SWAP3 SWAP2 SWAP1 PUSH2 0x201F JUMP JUMPDEST PUSH1 0x40 MLOAD DUP1 SWAP2 SUB SWAP1 LOG1 POP POP POP POP POP POP POP JUMP JUMPDEST PUSH1 0x2 PUSH1 0x20 MSTORE DUP1 PUSH0 MSTORE PUSH1 0x40 PUSH0 KECCAK256 PUSH0 SWAP2 POP SWAP1 POP DUP1 PUSH0 ADD SLOAD SWAP1 DUP1 PUSH1 0x1 ADD PUSH0 SWAP1 SLOAD SWAP1 PUSH2 0x100 EXP SWAP1 DIV PUSH20 0xFFFFFFFFFFFFFFFFFFFFFFFFFFFFFFFFFFFFFFFF AND SWAP1 DUP1 PUSH1 0x2 ADD SLOAD SWAP1 DUP1 PUSH1 0x3 ADD SLOAD SWAP1 DUP1 PUSH1 0x4 ADD PUSH0 SWAP1 SLOAD SWAP1 PUSH2 0x100 EXP SWAP1 DIV PUSH1 0xFF AND SWAP1 POP DUP6 JUMP JUMPDEST PUSH1 0x1 PUSH0 SWAP1 SLOAD SWAP1 PUSH2 0x100 EXP SWAP1 DIV PUSH20 0xFFFFFFFFFFFFFFFFFFFFFFFFFFFFFFFFFFFFFFFF AND DUP2 JUMP JUMPDEST PUSH1 0xA DUP2 JUMP JUMPDEST PUSH0 PUSH1 0x6 PUSH0 CALLER PUSH20 0xFFFFFFFFFFFFFFFFFFFFFFFFFFFFFFFFFFFFFFFF AND PUSH20 0xFFFFFFFFFFFFFFFFFFFFFFFFFFFFFFFFFFFFFFFF AND DUP2 MSTORE PUSH1 0x20 ADD SWAP1 DUP2 MSTORE PUSH1 0x20 ADD PUSH0 KECCAK256 PUSH0 DUP4 DUP2 MSTORE PUSH1 0x20 ADD SWAP1 DUP2 MSTORE PUSH1 0x20 ADD PUSH0 KECCAK256 SWAP1 POP DUP1 PUSH1 0x6 ADD PUSH0 SWAP1 SLOAD SWAP1 PUSH2 0x100 EXP SWAP1 DIV PUSH1 0xFF AND PUSH2 0x9B7 JUMPI PUSH1 0x40 MLOAD PUSH32 0x8C379A000000000000000000000000000000000000000000000000000000000 DUP2 MSTORE PUSH1 0x4 ADD PUSH2 0x9AE SWAP1 PUSH2 0x1EBD JUMP JUMPDEST PUSH1 0x40 MLOAD DUP1 SWAP2 SUB SWAP1 REVERT JUMPDEST PUSH0 DUP2 PUSH1 0x6 ADD PUSH0 PUSH2 0x100 EXP DUP2 SLOAD DUP2 PUSH1 0xFF MUL NOT AND SWAP1 DUP4 ISZERO ISZERO MUL OR SWAP1 SSTORE POP PUSH32 0x2F330F859F13A8FEB40316964202B2761082C4A40A3EDE01D89F496C0BD3248E DUP3 CALLER TIMESTAMP DUP5 PUSH1 0x4 ADD SLOAD DUP6 PUSH1 0x5 ADD SLOAD PUSH1 0x40 MLOAD PUSH2 0xA11 SWAP6 SWAP5 SWAP4 SWAP3 SWAP2 SWAP1 PUSH2 0x207E JUMP JUMPDEST PUSH1 0x40 MLOAD DUP1 SWAP2 SUB SWAP1 LOG1 POP POP JUMP JUMPDEST PUSH1 0x6 PUSH1 0x20 MSTORE DUP2 PUSH0 MSTORE PUSH1 0x40 PUSH0 KECCAK256 PUSH1 0x20 MSTORE DUP1 PUSH0 MSTORE PUSH1 0x40 PUSH0 KECCAK256 PUSH0 SWAP2 POP SWAP2 POP POP DUP1 PUSH0 ADD SLOAD SWAP1 DUP1 PUSH1 0x1 ADD PUSH0 SWAP1 SLOAD SWAP1 PUSH2 0x100 EXP SWAP1 DIV PUSH20 0xFFFFFFFFFFFFFFFFFFFFFFFFFFFFFFFFFFFFFFFF AND SWAP1 DUP1 PUSH1 0x2 ADD SLOAD SWAP1 DUP1 PUSH1 0x3 ADD SLOAD SWAP1 DUP1 PUSH1 0x4 ADD SLOAD SWAP1 DUP1 PUSH1 0x5 ADD SLOAD SWAP1 DUP1 PUSH1 0x6 ADD PUSH0 SWAP1 SLOAD SWAP1 PUSH2 0x100 EXP SWAP1 DIV PUSH1 0xFF AND SWAP1 POP DUP8 JUMP JUMPDEST PUSH0 SLOAD DUP2 JUMP JUMPDEST PUSH1 0x2 PUSH0 DUP3 DUP2 MSTORE PUSH1 0x20 ADD SWAP1 DUP2 MSTORE PUSH1 0x20 ADD PUSH0 KECCAK256 PUSH1 0x4 ADD PUSH0 SWAP1 SLOAD SWAP1 PUSH2 0x100 EXP SWAP1 DIV PUSH1 0xFF AND PUSH2 0xAF6 JUMPI PUSH1 0x40 MLOAD PUSH32 0x8C379A000000000000000000000000000000000000000000000000000000000 DUP2 MSTORE PUSH1 0x4 ADD PUSH2 0xAED SWAP1 PUSH2 0x1D58 JUMP JUMPDEST PUSH1 0x40 MLOAD DUP1 SWAP2 SUB SWAP1 REVERT JUMPDEST PUSH0 CALLVALUE GT PUSH2 0xB38 JUMPI PUSH1 0x40 MLOAD PUSH32 0x8C379A000000000000000000000000000000000000000000000000000000000 DUP2 MSTORE PUSH1 0x4 ADD PUSH2 0xB2F SWAP1 PUSH2 0x2119 JUMP JUMPDEST PUSH1 0x40 MLOAD DUP1 SWAP2 SUB SWAP1 REVERT JUMPDEST PUSH0 PUSH1 0x2 PUSH0 DUP4 DUP2 MSTORE PUSH1 0x20 ADD SWAP1 DUP2 MSTORE PUSH1 0x20 ADD PUSH0 KECCAK256 SWAP1 POP CALLVALUE DUP2 PUSH1 0x3 ADD PUSH0 DUP3 DUP3 SLOAD PUSH2 0xB5F SWAP2 SWAP1 PUSH2 0x1E0B JUMP JUMPDEST SWAP3 POP POP DUP2 SWAP1 SSTORE POP PUSH0 PUSH1 0x64 PUSH1 0x3C CALLVALUE PUSH2 0xB76 SWAP2 SWAP1 PUSH2 0x1F76 JUMP JUMPDEST PUSH2 0xB80 SWAP2 SWAP1 PUSH2 0x2164 JUMP JUMPDEST SWAP1 POP PUSH0 PUSH1 0x64 PUSH1 0x1E CALLVALUE PUSH2 0xB92 SWAP2 SWAP1 PUSH2 0x1F76 JUMP JUMPDEST PUSH2 0xB9C SWAP2 SWAP1 PUSH2 0x2164 JUMP JUMPDEST SWAP1 POP PUSH0 PUSH1 0x64 PUSH1 0xA CALLVALUE PUSH2 0xBAE SWAP2 SWAP1 PUSH2 0x1F76 JUMP JUMPDEST PUSH2 0xBB8 SWAP2 SWAP1 PUSH2 0x2164 JUMP JUMPDEST SWAP1 POP PUSH0 DUP5 PUSH1 0x1 ADD PUSH0 SWAP1 SLOAD SWAP1 PUSH2 0x100 EXP SWAP1 DIV PUSH20 0xFFFFFFFFFFFFFFFFFFFFFFFFFFFFFFFFFFFFFFFF AND PUSH20 0xFFFFFFFFFFFFFFFFFFFFFFFFFFFFFFFFFFFFFFFF AND DUP5 PUSH1 0x40 MLOAD PUSH2 0xC02 SWAP1 PUSH2 0x21C1 JUMP JUMPDEST PUSH0 PUSH1 0x40 MLOAD DUP1 DUP4 SUB DUP2 DUP6 DUP8 GAS CALL SWAP3 POP POP POP RETURNDATASIZE DUP1 PUSH0 DUP2 EQ PUSH2 0xC3C JUMPI PUSH1 0x40 MLOAD SWAP2 POP PUSH1 0x1F NOT PUSH1 0x3F RETURNDATASIZE ADD AND DUP3 ADD PUSH1 0x40 MSTORE RETURNDATASIZE DUP3 MSTORE RETURNDATASIZE PUSH0 PUSH1 0x20 DUP5 ADD RETURNDATACOPY PUSH2 0xC41 JUMP JUMPDEST PUSH1 0x60 SWAP2 POP JUMPDEST POP POP SWAP1 POP DUP1 PUSH2 0xC85 JUMPI PUSH1 0x40 MLOAD PUSH32 0x8C379A000000000000000000000000000000000000000000000000000000000 DUP2 MSTORE PUSH1 0x4 ADD PUSH2 0xC7C SWAP1 PUSH2 0x221F JUMP JUMPDEST PUSH1 0x40 MLOAD DUP1 SWAP2 SUB SWAP1 REVERT JUMPDEST PUSH0 PUSH1 0x1 PUSH0 SWAP1 SLOAD SWAP1 PUSH2 0x100 EXP SWAP1 DIV PUSH20 0xFFFFFFFFFFFFFFFFFFFFFFFFFFFFFFFFFFFFFFFF AND PUSH20 0xFFFFFFFFFFFFFFFFFFFFFFFFFFFFFFFFFFFFFFFF AND DUP4 PUSH1 0x40 MLOAD PUSH2 0xCCB SWAP1 PUSH2 0x21C1 JUMP JUMPDEST PUSH0 PUSH1 0x40 MLOAD DUP1 DUP4 SUB DUP2 DUP6 DUP8 GAS CALL SWAP3 POP POP POP RETURNDATASIZE DUP1 PUSH0 DUP2 EQ PUSH2 0xD05 JUMPI PUSH1 0x40 MLOAD SWAP2 POP PUSH1 0x1F NOT PUSH1 0x3F RETURNDATASIZE ADD AND DUP3 ADD PUSH1 0x40 MSTORE RETURNDATASIZE DUP3 MSTORE RETURNDATASIZE PUSH0 PUSH1 0x20 DUP5 ADD RETURNDATACOPY PUSH2 0xD0A JUMP JUMPDEST PUSH1 0x60 SWAP2 POP JUMPDEST POP POP SWAP1 POP DUP1 PUSH2 0xD4E JUMPI PUSH1 0x40 MLOAD PUSH32 0x8C379A000000000000000000000000000000000000000000000000000000000 DUP2 MSTORE PUSH1 0x4 ADD PUSH2 0xD45 SWAP1 PUSH2 0x2287 JUMP JUMPDEST PUSH1 0x40 MLOAD DUP1 SWAP2 SUB SWAP1 REVERT JUMPDEST PUSH2 0xD58 DUP8 DUP6 PUSH2 0x1595 JUMP JUMPDEST PUSH32 0x4D3F6D68B42E1E039D6E7323B2B8BDEAF223F453882CE17A5984F4D6AABBDB33 DUP8 CALLER CALLVALUE PUSH1 0x40 MLOAD PUSH2 0xD8B SWAP4 SWAP3 SWAP2 SWAP1 PUSH2 0x1E3E JUMP JUMPDEST PUSH1 0x40 MLOAD DUP1 SWAP2 SUB SWAP1 LOG1 POP POP POP POP POP POP POP JUMP JUMPDEST PUSH1 0x3C DUP2 JUMP JUMPDEST PUSH1 0x3 PUSH1 0x20 MSTORE DUP2 PUSH0 MSTORE PUSH1 0x40 PUSH0 KECCAK256 PUSH1 0x20 MSTORE DUP1 PUSH0 MSTORE PUSH1 0x40 PUSH0 KECCAK256 PUSH0 SWAP2 POP SWAP2 POP POP DUP1 PUSH0 ADD SLOAD SWAP1 DUP1 PUSH1 0x1 ADD SLOAD SWAP1 POP DUP3 JUMP JUMPDEST PUSH0 PUSH1 0x3 PUSH0 DUP4 DUP2 MSTORE PUSH1 0x20 ADD SWAP1 DUP2 MSTORE PUSH1 0x20 ADD PUSH0 KECCAK256 PUSH0 CALLER PUSH20 0xFFFFFFFFFFFFFFFFFFFFFFFFFFFFFFFFFFFFFFFF AND PUSH20 0xFFFFFFFFFFFFFFFFFFFFFFFFFFFFFFFFFFFFFFFF AND DUP2 MSTORE PUSH1 0x20 ADD SWAP1 DUP2 MSTORE PUSH1 0x20 ADD PUSH0 KECCAK256 PUSH1 0x1 ADD SLOAD SWAP1 POP PUSH0 DUP2 GT PUSH2 0xE61 JUMPI PUSH1 0x40 MLOAD PUSH32 0x8C379A000000000000000000000000000000000000000000000000000000000 DUP2 MSTORE PUSH1 0x4 ADD PUSH2 0xE58 SWAP1 PUSH2 0x22EF JUMP JUMPDEST PUSH1 0x40 MLOAD DUP1 SWAP2 SUB SWAP1 REVERT JUMPDEST PUSH0 PUSH1 0x3 PUSH0 DUP5 DUP2 MSTORE PUSH1 0x20 ADD SWAP1 DUP2 MSTORE PUSH1 0x20 ADD PUSH0 KECCAK256 PUSH0 CALLER PUSH20 0xFFFFFFFFFFFFFFFFFFFFFFFFFFFFFFFFFFFFFFFF AND PUSH20 0xFFFFFFFFFFFFFFFFFFFFFFFFFFFFFFFFFFFFFFFF AND DUP2 MSTORE PUSH1 0x20 ADD SWAP1 DUP2 MSTORE PUSH1 0x20 ADD PUSH0 KECCAK256 PUSH1 0x1 ADD DUP2 SWAP1 SSTORE POP PUSH0 CALLER PUSH20 0xFFFFFFFFFFFFFFFFFFFFFFFFFFFFFFFFFFFFFFFF AND DUP3 PUSH1 0x40 MLOAD PUSH2 0xEDA SWAP1 PUSH2 0x21C1 JUMP JUMPDEST PUSH0 PUSH1 0x40 MLOAD DUP1 DUP4 SUB DUP2 DUP6 DUP8 GAS CALL SWAP3 POP POP POP RETURNDATASIZE DUP1 PUSH0 DUP2 EQ PUSH2 0xF14 JUMPI PUSH1 0x40 MLOAD SWAP2 POP PUSH1 0x1F NOT PUSH1 0x3F RETURNDATASIZE ADD AND DUP3 ADD PUSH1 0x40 MSTORE RETURNDATASIZE DUP3 MSTORE RETURNDATASIZE PUSH0 PUSH1 0x20 DUP5 ADD RETURNDATACOPY PUSH2 0xF19 JUMP JUMPDEST PUSH1 0x60 SWAP2 POP JUMPDEST POP POP SWAP1 POP DUP1 PUSH2 0xF5D JUMPI PUSH1 0x40 MLOAD PUSH32 0x8C379A000000000000000000000000000000000000000000000000000000000 DUP2 MSTORE PUSH1 0x4 ADD PUSH2 0xF54 SWAP1 PUSH2 0x2357 JUMP JUMPDEST PUSH1 0x40 MLOAD DUP1 SWAP2 SUB SWAP1 REVERT JUMPDEST PUSH32 0x7FCF532C15F0A6DB0BD6D0E038BEA71D30D808C7D98CB3BF7268A95BF5081B65 CALLER DUP4 PUSH1 0x40 MLOAD PUSH2 0xF8E SWAP3 SWAP2 SWAP1 PUSH2 0x2375 JUMP JUMPDEST PUSH1 0x40 MLOAD DUP1 SWAP2 SUB SWAP1 LOG1 POP POP POP JUMP JUMPDEST PUSH0 DUP3 GT PUSH2 0xFDD JUMPI PUSH1 0x40 MLOAD PUSH32 0x8C379A000000000000000000000000000000000000000000000000000000000 DUP2 MSTORE PUSH1 0x4 ADD PUSH2 0xFD4 SWAP1 PUSH2 0x23E6 JUMP JUMPDEST PUSH1 0x40 MLOAD DUP1 SWAP2 SUB SWAP1 REVERT JUMPDEST PUSH0 PUSH20 0xFFFFFFFFFFFFFFFFFFFFFFFFFFFFFFFFFFFFFFFF AND DUP2 PUSH20 0xFFFFFFFFFFFFFFFFFFFFFFFFFFFFFFFFFFFFFFFF AND SUB PUSH2 0x104B JUMPI PUSH1 0x40 MLOAD PUSH32 0x8C379A000000000000000000000000000000000000000000000000000000000 DUP2 MSTORE PUSH1 0x4 ADD PUSH2 0x1042 SWAP1 PUSH2 0x244E JUMP JUMPDEST PUSH1 0x40 MLOAD DUP1 SWAP2 SUB SWAP1 REVERT JUMPDEST PUSH0 PUSH0 DUP2 SLOAD DUP1 SWAP3 SWAP2 SWAP1 PUSH2 0x105C SWAP1 PUSH2 0x246C JUMP JUMPDEST SWAP2 SWAP1 POP SSTORE POP PUSH1 0x40 MLOAD DUP1 PUSH1 0xA0 ADD PUSH1 0x40 MSTORE DUP1 PUSH0 SLOAD DUP2 MSTORE PUSH1 0x20 ADD DUP3 PUSH20 0xFFFFFFFFFFFFFFFFFFFFFFFFFFFFFFFFFFFFFFFF AND DUP2 MSTORE PUSH1 0x20 ADD DUP4 DUP2 MSTORE PUSH1 0x20 ADD PUSH0 DUP2 MSTORE PUSH1 0x20 ADD PUSH1 0x1 ISZERO ISZERO DUP2 MSTORE POP PUSH1 0x2 PUSH0 PUSH0 SLOAD DUP2 MSTORE PUSH1 0x20 ADD SWAP1 DUP2 MSTORE PUSH1 0x20 ADD PUSH0 KECCAK256 PUSH0 DUP3 ADD MLOAD DUP2 PUSH0 ADD SSTORE PUSH1 0x20 DUP3 ADD MLOAD DUP2 PUSH1 0x1 ADD PUSH0 PUSH2 0x100 EXP DUP2 SLOAD DUP2 PUSH20 0xFFFFFFFFFFFFFFFFFFFFFFFFFFFFFFFFFFFFFFFF MUL NOT AND SWAP1 DUP4 PUSH20 0xFFFFFFFFFFFFFFFFFFFFFFFFFFFFFFFFFFFFFFFF AND MUL OR SWAP1 SSTORE POP PUSH1 0x40 DUP3 ADD MLOAD DUP2 PUSH1 0x2 ADD SSTORE PUSH1 0x60 DUP3 ADD MLOAD DUP2 PUSH1 0x3 ADD SSTORE PUSH1 0x80 DUP3 ADD MLOAD DUP2 PUSH1 0x4 ADD PUSH0 PUSH2 0x100 EXP DUP2 SLOAD DUP2 PUSH1 0xFF MUL NOT AND SWAP1 DUP4 ISZERO ISZERO MUL OR SWAP1 SSTORE POP SWAP1 POP POP PUSH32 0xFD9CD32FE11753995CE22CE976E205CA0FEBE46E459C83EF62FB9AFFDAE82D44 PUSH0 SLOAD DUP3 DUP5 PUSH1 0x40 MLOAD PUSH2 0x116C SWAP4 SWAP3 SWAP2 SWAP1 PUSH2 0x1E3E JUMP JUMPDEST PUSH1 0x40 MLOAD DUP1 SWAP2 SUB SWAP1 LOG1 POP POP JUMP JUMPDEST PUSH1 0x2 PUSH0 DUP3 DUP2 MSTORE PUSH1 0x20 ADD SWAP1 DUP2 MSTORE PUSH1 0x20 ADD PUSH0 KECCAK256 PUSH1 0x4 ADD PUSH0 SWAP1 SLOAD SWAP1 PUSH2 0x100 EXP SWAP1 DIV PUSH1 0xFF AND PUSH2 0x11D8 JUMPI PUSH1 0x40 MLOAD PUSH32 0x8C379A000000000000000000000000000000000000000000000000000000000 DUP2 MSTORE PUSH1 0x4 ADD PUSH2 0x11CF SWAP1 PUSH2 0x1D58 JUMP JUMPDEST PUSH1 0x40 MLOAD DUP1 SWAP2 SUB SWAP1 REVERT JUMPDEST PUSH0 PUSH1 0x6 PUSH0 CALLER PUSH20 0xFFFFFFFFFFFFFFFFFFFFFFFFFFFFFFFFFFFFFFFF AND PUSH20 0xFFFFFFFFFFFFFFFFFFFFFFFFFFFFFFFFFFFFFFFF AND DUP2 MSTORE PUSH1 0x20 ADD SWAP1 DUP2 MSTORE PUSH1 0x20 ADD PUSH0 KECCAK256 PUSH0 DUP4 DUP2 MSTORE PUSH1 0x20 ADD SWAP1 DUP2 MSTORE PUSH1 0x20 ADD PUSH0 KECCAK256 SWAP1 POP DUP1 PUSH1 0x6 ADD PUSH0 SWAP1 SLOAD SWAP1 PUSH2 0x100 EXP SWAP1 DIV PUSH1 0xFF AND ISZERO PUSH2 0x1278 JUMPI PUSH1 0x40 MLOAD PUSH32 0x8C379A000000000000000000000000000000000000000000000000000000000 DUP2 MSTORE PUSH1 0x4 ADD PUSH2 0x126F SWAP1 PUSH2 0x24FD JUMP JUMPDEST PUSH1 0x40 MLOAD DUP1 SWAP2 SUB SWAP1 REVERT JUMPDEST DUP2 DUP2 PUSH0 ADD DUP2 SWAP1 SSTORE POP CALLER DUP2 PUSH1 0x1 ADD PUSH0 PUSH2 0x100 EXP DUP2 SLOAD DUP2 PUSH20 0xFFFFFFFFFFFFFFFFFFFFFFFFFFFFFFFFFFFFFFFF MUL NOT AND SWAP1 DUP4 PUSH20 0xFFFFFFFFFFFFFFFFFFFFFFFFFFFFFFFFFFFFFFFF AND MUL OR SWAP1 SSTORE POP TIMESTAMP DUP2 PUSH1 0x2 ADD DUP2 SWAP1 SSTORE POP TIMESTAMP DUP2 PUSH1 0x3 ADD DUP2 SWAP1 SSTORE POP PUSH1 0x1 DUP2 PUSH1 0x6 ADD PUSH0 PUSH2 0x100 EXP DUP2 SLOAD DUP2 PUSH1 0xFF MUL NOT AND SWAP1 DUP4 ISZERO ISZERO MUL OR SWAP1 SSTORE POP PUSH32 0x765EE4960F08AAD7CF496291097A74B71AC25B0CDA25BFCE2A1651C822FB5738 DUP3 CALLER TIMESTAMP PUSH1 0x40 MLOAD PUSH2 0x1323 SWAP4 SWAP3 SWAP2 SWAP1 PUSH2 0x1E3E JUMP JUMPDEST PUSH1 0x40 MLOAD DUP1 SWAP2 SUB SWAP1 LOG1 POP POP JUMP JUMPDEST PUSH0 PUSH1 0x2 PUSH0 DUP6 DUP2 MSTORE PUSH1 0x20 ADD SWAP1 DUP2 MSTORE PUSH1 0x20 ADD PUSH0 KECCAK256 SWAP1 POP DUP2 DUP2 PUSH1 0x3 ADD PUSH0 DUP3 DUP3 SLOAD PUSH2 0x1356 SWAP2 SWAP1 PUSH2 0x1E0B JUMP JUMPDEST SWAP3 POP POP DUP2 SWAP1 SSTORE POP PUSH0 PUSH1 0x64 PUSH1 0x3C DUP5 PUSH2 0x136D SWAP2 SWAP1 PUSH2 0x1F76 JUMP JUMPDEST PUSH2 0x1377 SWAP2 SWAP1 PUSH2 0x2164 JUMP JUMPDEST SWAP1 POP PUSH0 PUSH1 0x64 PUSH1 0x1E DUP6 PUSH2 0x1389 SWAP2 SWAP1 PUSH2 0x1F76 JUMP JUMPDEST PUSH2 0x1393 SWAP2 SWAP1 PUSH2 0x2164 JUMP JUMPDEST SWAP1 POP PUSH0 PUSH1 0x64 PUSH1 0xA DUP7 PUSH2 0x13A5 SWAP2 SWAP1 PUSH2 0x1F76 JUMP JUMPDEST PUSH2 0x13AF SWAP2 SWAP1 PUSH2 0x2164 JUMP JUMPDEST SWAP1 POP PUSH0 DUP5 PUSH1 0x1 ADD PUSH0 SWAP1 SLOAD SWAP1 PUSH2 0x100 EXP SWAP1 DIV PUSH20 0xFFFFFFFFFFFFFFFFFFFFFFFFFFFFFFFFFFFFFFFF AND PUSH20 0xFFFFFFFFFFFFFFFFFFFFFFFFFFFFFFFFFFFFFFFF AND DUP5 PUSH1 0x40 MLOAD PUSH2 0x13F9 SWAP1 PUSH2 0x21C1 JUMP JUMPDEST PUSH0 PUSH1 0x40 MLOAD DUP1 DUP4 SUB DUP2 DUP6 DUP8 GAS CALL SWAP3 POP POP POP RETURNDATASIZE DUP1 PUSH0 DUP2 EQ PUSH2 0x1433 JUMPI PUSH1 0x40 MLOAD SWAP2 POP PUSH1 0x1F NOT PUSH1 0x3F RETURNDATASIZE ADD AND DUP3 ADD PUSH1 0x40 MSTORE RETURNDATASIZE DUP3 MSTORE RETURNDATASIZE PUSH0 PUSH1 0x20 DUP5 ADD RETURNDATACOPY PUSH2 0x1438 JUMP JUMPDEST PUSH1 0x60 SWAP2 POP JUMPDEST POP POP SWAP1 POP DUP1 PUSH2 0x147C JUMPI PUSH1 0x40 MLOAD PUSH32 0x8C379A000000000000000000000000000000000000000000000000000000000 DUP2 MSTORE PUSH1 0x4 ADD PUSH2 0x1473 SWAP1 PUSH2 0x221F JUMP JUMPDEST PUSH1 0x40 MLOAD DUP1 SWAP2 SUB SWAP1 REVERT JUMPDEST PUSH0 PUSH1 0x1 PUSH0 SWAP1 SLOAD SWAP1 PUSH2 0x100 EXP SWAP1 DIV PUSH20 0xFFFFFFFFFFFFFFFFFFFFFFFFFFFFFFFFFFFFFFFF AND PUSH20 0xFFFFFFFFFFFFFFFFFFFFFFFFFFFFFFFFFFFFFFFF AND DUP4 PUSH1 0x40 MLOAD PUSH2 0x14C2 SWAP1 PUSH2 0x21C1 JUMP JUMPDEST PUSH0 PUSH1 0x40 MLOAD DUP1 DUP4 SUB DUP2 DUP6 DUP8 GAS CALL SWAP3 POP POP POP RETURNDATASIZE DUP1 PUSH0 DUP2 EQ PUSH2 0x14FC JUMPI PUSH1 0x40 MLOAD SWAP2 POP PUSH1 0x1F NOT PUSH1 0x3F RETURNDATASIZE ADD AND DUP3 ADD PUSH1 0x40 MSTORE RETURNDATASIZE DUP3 MSTORE RETURNDATASIZE PUSH0 PUSH1 0x20 DUP5 ADD RETURNDATACOPY PUSH2 0x1501 JUMP JUMPDEST PUSH1 0x60 SWAP2 POP JUMPDEST POP POP SWAP1 POP DUP1 PUSH2 0x1545 JUMPI PUSH1 0x40 MLOAD PUSH32 0x8C379A000000000000000000000000000000000000000000000000000000000 DUP2 MSTORE PUSH1 0x4 ADD PUSH2 0x153C SWAP1 PUSH2 0x2287 JUMP JUMPDEST PUSH1 0x40 MLOAD DUP1 SWAP2 SUB SWAP1 REVERT JUMPDEST PUSH2 0x154F DUP10 DUP6 PUSH2 0x1595 JUMP JUMPDEST PUSH32 0x4D3F6D68B42E1E039D6E7323B2B8BDEAF223F453882CE17A5984F4D6AABBDB33 DUP10 DUP10 DUP10 PUSH1 0x40 MLOAD PUSH2 0x1582 SWAP4 SWAP3 SWAP2 SWAP1 PUSH2 0x1E3E JUMP JUMPDEST PUSH1 0x40 MLOAD DUP1 SWAP2 SUB SWAP1 LOG1 POP POP POP POP POP POP POP POP POP JUMP JUMPDEST PUSH0 PUSH1 0x5 PUSH0 DUP5 DUP2 MSTORE PUSH1 0x20 ADD SWAP1 DUP2 MSTORE PUSH1 0x20 ADD PUSH0 KECCAK256 SLOAD SWAP1 POP PUSH0 DUP2 SUB PUSH2 0x1681 JUMPI PUSH0 PUSH1 0x1 PUSH0 SWAP1 SLOAD SWAP1 PUSH2 0x100 EXP SWAP1 DIV PUSH20 0xFFFFFFFFFFFFFFFFFFFFFFFFFFFFFFFFFFFFFFFF AND PUSH20 0xFFFFFFFFFFFFFFFFFFFFFFFFFFFFFFFFFFFFFFFF AND DUP4 PUSH1 0x40 MLOAD PUSH2 0x15F7 SWAP1 PUSH2 0x21C1 JUMP JUMPDEST PUSH0 PUSH1 0x40 MLOAD DUP1 DUP4 SUB DUP2 DUP6 DUP8 GAS CALL SWAP3 POP POP POP RETURNDATASIZE DUP1 PUSH0 DUP2 EQ PUSH2 0x1631 JUMPI PUSH1 0x40 MLOAD SWAP2 POP PUSH1 0x1F NOT PUSH1 0x3F RETURNDATASIZE ADD AND DUP3 ADD PUSH1 0x40 MSTORE RETURNDATASIZE DUP3 MSTORE RETURNDATASIZE PUSH0 PUSH1 0x20 DUP5 ADD RETURNDATACOPY PUSH2 0x1636 JUMP JUMPDEST PUSH1 0x60 SWAP2 POP JUMPDEST POP POP SWAP1 POP DUP1 PUSH2 0x167A JUMPI PUSH1 0x40 MLOAD PUSH32 0x8C379A000000000000000000000000000000000000000000000000000000000 DUP2 MSTORE PUSH1 0x4 ADD PUSH2 0x1671 SWAP1 PUSH2 0x2287 JUMP JUMPDEST PUSH1 0x40 MLOAD DUP1 SWAP2 SUB SWAP1 REVERT JUMPDEST POP POP PUSH2 0x1A35 JUMP JUMPDEST PUSH0 PUSH1 0x4 PUSH0 DUP6 DUP2 MSTORE PUSH1 0x20 ADD SWAP1 DUP2 MSTORE PUSH1 0x20 ADD PUSH0 KECCAK256 SWAP1 POP PUSH0 DUP2 DUP1 SLOAD SWAP1 POP SWAP1 POP PUSH0 PUSH0 PUSH0 SWAP1 POP JUMPDEST DUP3 DUP2 LT ISZERO PUSH2 0x1757 JUMPI PUSH0 PUSH1 0x3 PUSH0 DUP10 DUP2 MSTORE PUSH1 0x20 ADD SWAP1 DUP2 MSTORE PUSH1 0x20 ADD PUSH0 KECCAK256 PUSH0 DUP7 DUP5 DUP2 SLOAD DUP2 LT PUSH2 0x16D1 JUMPI PUSH2 0x16D0 PUSH2 0x251B JUMP JUMPDEST JUMPDEST SWAP1 PUSH0 MSTORE PUSH1 0x20 PUSH0 KECCAK256 ADD PUSH0 SWAP1 SLOAD SWAP1 PUSH2 0x100 EXP SWAP1 DIV PUSH20 0xFFFFFFFFFFFFFFFFFFFFFFFFFFFFFFFFFFFFFFFF AND PUSH20 0xFFFFFFFFFFFFFFFFFFFFFFFFFFFFFFFFFFFFFFFF AND PUSH20 0xFFFFFFFFFFFFFFFFFFFFFFFFFFFFFFFFFFFFFFFF AND DUP2 MSTORE PUSH1 0x20 ADD SWAP1 DUP2 MSTORE PUSH1 0x20 ADD PUSH0 KECCAK256 PUSH0 ADD SLOAD GT ISZERO PUSH2 0x174A JUMPI DUP2 DUP1 PUSH2 0x1746 SWAP1 PUSH2 0x246C JUMP JUMPDEST SWAP3 POP POP JUMPDEST DUP1 DUP1 PUSH1 0x1 ADD SWAP2 POP POP PUSH2 0x16A3 JUMP JUMPDEST POP PUSH0 DUP2 SUB PUSH2 0x1832 JUMPI PUSH0 PUSH1 0x1 PUSH0 SWAP1 SLOAD SWAP1 PUSH2 0x100 EXP SWAP1 DIV PUSH20 0xFFFFFFFFFFFFFFFFFFFFFFFFFFFFFFFFFFFFFFFF AND PUSH20 0xFFFFFFFFFFFFFFFFFFFFFFFFFFFFFFFFFFFFFFFF AND DUP7 PUSH1 0x40 MLOAD PUSH2 0x17A5 SWAP1 PUSH2 0x21C1 JUMP JUMPDEST PUSH0 PUSH1 0x40 MLOAD DUP1 DUP4 SUB DUP2 DUP6 DUP8 GAS CALL SWAP3 POP POP POP RETURNDATASIZE DUP1 PUSH0 DUP2 EQ PUSH2 0x17DF JUMPI PUSH1 0x40 MLOAD SWAP2 POP PUSH1 0x1F NOT PUSH1 0x3F RETURNDATASIZE ADD AND DUP3 ADD PUSH1 0x40 MSTORE RETURNDATASIZE DUP3 MSTORE RETURNDATASIZE PUSH0 PUSH1 0x20 DUP5 ADD RETURNDATACOPY PUSH2 0x17E4 JUMP JUMPDEST PUSH1 0x60 SWAP2 POP JUMPDEST POP POP SWAP1 POP DUP1 PUSH2 0x1828 JUMPI PUSH1 0x40 MLOAD PUSH32 0x8C379A000000000000000000000000000000000000000000000000000000000 DUP2 MSTORE PUSH1 0x4 ADD PUSH2 0x181F SWAP1 PUSH2 0x2287 JUMP JUMPDEST PUSH1 0x40 MLOAD DUP1 SWAP2 SUB SWAP1 REVERT JUMPDEST POP POP POP POP POP PUSH2 0x1A35 JUMP JUMPDEST PUSH0 PUSH0 PUSH0 PUSH0 SWAP1 POP JUMPDEST DUP5 DUP2 LT ISZERO PUSH2 0x19EB JUMPI PUSH0 DUP7 DUP3 DUP2 SLOAD DUP2 LT PUSH2 0x1855 JUMPI PUSH2 0x1854 PUSH2 0x251B JUMP JUMPDEST JUMPDEST SWAP1 PUSH0 MSTORE PUSH1 0x20 PUSH0 KECCAK256 ADD PUSH0 SWAP1 SLOAD SWAP1 PUSH2 0x100 EXP SWAP1 DIV PUSH20 0xFFFFFFFFFFFFFFFFFFFFFFFFFFFFFFFFFFFFFFFF AND SWAP1 POP PUSH0 PUSH1 0x3 PUSH0 DUP13 DUP2 MSTORE PUSH1 0x20 ADD SWAP1 DUP2 MSTORE PUSH1 0x20 ADD PUSH0 KECCAK256 PUSH0 DUP4 PUSH20 0xFFFFFFFFFFFFFFFFFFFFFFFFFFFFFFFFFFFFFFFF AND PUSH20 0xFFFFFFFFFFFFFFFFFFFFFFFFFFFFFFFFFFFFFFFF AND DUP2 MSTORE PUSH1 0x20 ADD SWAP1 DUP2 MSTORE PUSH1 0x20 ADD PUSH0 KECCAK256 SWAP1 POP PUSH0 DUP2 PUSH0 ADD SLOAD SUB PUSH2 0x18DF JUMPI POP POP PUSH2 0x19DE JUMP JUMPDEST DUP4 DUP1 PUSH2 0x18EA SWAP1 PUSH2 0x246C JUMP JUMPDEST SWAP5 POP POP PUSH0 DUP7 DUP6 EQ PUSH2 0x1914 JUMPI DUP10 DUP3 PUSH0 ADD SLOAD DUP13 PUSH2 0x1905 SWAP2 SWAP1 PUSH2 0x1F76 JUMP JUMPDEST PUSH2 0x190F SWAP2 SWAP1 PUSH2 0x2164 JUMP JUMPDEST PUSH2 0x1921 JUMP JUMPDEST DUP6 DUP12 PUSH2 0x1920 SWAP2 SWAP1 PUSH2 0x1F43 JUMP JUMPDEST JUMPDEST SWAP1 POP DUP1 DUP7 PUSH2 0x192F SWAP2 SWAP1 PUSH2 0x1E0B JUMP JUMPDEST SWAP6 POP PUSH0 DUP4 PUSH20 0xFFFFFFFFFFFFFFFFFFFFFFFFFFFFFFFFFFFFFFFF AND DUP3 PUSH1 0x40 MLOAD PUSH2 0x1956 SWAP1 PUSH2 0x21C1 JUMP JUMPDEST PUSH0 PUSH1 0x40 MLOAD DUP1 DUP4 SUB DUP2 DUP6 DUP8 GAS CALL SWAP3 POP POP POP RETURNDATASIZE DUP1 PUSH0 DUP2 EQ PUSH2 0x1990 JUMPI PUSH1 0x40 MLOAD SWAP2 POP PUSH1 0x1F NOT PUSH1 0x3F RETURNDATASIZE ADD AND DUP3 ADD PUSH1 0x40 MSTORE RETURNDATASIZE DUP3 MSTORE RETURNDATASIZE PUSH0 PUSH1 0x20 DUP5 ADD RETURNDATACOPY PUSH2 0x1995 JUMP JUMPDEST PUSH1 0x60 SWAP2 POP JUMPDEST POP POP SWAP1 POP DUP1 PUSH2 0x19D9 JUMPI PUSH1 0x40 MLOAD PUSH32 0x8C379A000000000000000000000000000000000000000000000000000000000 DUP2 MSTORE PUSH1 0x4 ADD PUSH2 0x19D0 SWAP1 PUSH2 0x2592 JUMP JUMPDEST PUSH1 0x40 MLOAD DUP1 SWAP2 SUB SWAP1 REVERT JUMPDEST POP POP POP POP JUMPDEST DUP1 DUP1 PUSH1 0x1 ADD SWAP2 POP POP PUSH2 0x1839 JUMP JUMPDEST POP DUP7 DUP3 EQ PUSH2 0x1A2E JUMPI PUSH1 0x40 MLOAD PUSH32 0x8C379A000000000000000000000000000000000000000000000000000000000 DUP2 MSTORE PUSH1 0x4 ADD PUSH2 0x1A25 SWAP1 PUSH2 0x25FA JUMP JUMPDEST PUSH1 0x40 MLOAD DUP1 SWAP2 SUB SWAP1 REVERT JUMPDEST POP POP POP POP POP POP JUMPDEST POP POP JUMP JUMPDEST PUSH0 PUSH0 REVERT JUMPDEST PUSH0 DUP2 SWAP1 POP SWAP2 SWAP1 POP JUMP JUMPDEST PUSH2 0x1A4F DUP2 PUSH2 0x1A3D JUMP JUMPDEST DUP2 EQ PUSH2 0x1A59 JUMPI PUSH0 PUSH0 REVERT JUMPDEST POP JUMP JUMPDEST PUSH0 DUP2 CALLDATALOAD SWAP1 POP PUSH2 0x1A6A DUP2 PUSH2 0x1A46 JUMP JUMPDEST SWAP3 SWAP2 POP POP JUMP JUMPDEST PUSH0 PUSH0 PUSH1 0x40 DUP4 DUP6 SUB SLT ISZERO PUSH2 0x1A86 JUMPI PUSH2 0x1A85 PUSH2 0x1A39 JUMP JUMPDEST JUMPDEST PUSH0 PUSH2 0x1A93 DUP6 DUP3 DUP7 ADD PUSH2 0x1A5C JUMP JUMPDEST SWAP3 POP POP PUSH1 0x20 PUSH2 0x1AA4 DUP6 DUP3 DUP7 ADD PUSH2 0x1A5C JUMP JUMPDEST SWAP2 POP POP SWAP3 POP SWAP3 SWAP1 POP JUMP JUMPDEST PUSH0 PUSH20 0xFFFFFFFFFFFFFFFFFFFFFFFFFFFFFFFFFFFFFFFF DUP3 AND SWAP1 POP SWAP2 SWAP1 POP JUMP JUMPDEST PUSH0 PUSH2 0x1AD7 DUP3 PUSH2 0x1AAE JUMP JUMPDEST SWAP1 POP SWAP2 SWAP1 POP JUMP JUMPDEST PUSH2 0x1AE7 DUP2 PUSH2 0x1ACD JUMP JUMPDEST DUP3 MSTORE POP POP JUMP JUMPDEST PUSH0 PUSH1 0x20 DUP3 ADD SWAP1 POP PUSH2 0x1B00 PUSH0 DUP4 ADD DUP5 PUSH2 0x1ADE JUMP JUMPDEST SWAP3 SWAP2 POP POP JUMP JUMPDEST PUSH0 PUSH1 0x20 DUP3 DUP5 SUB SLT ISZERO PUSH2 0x1B1B JUMPI PUSH2 0x1B1A PUSH2 0x1A39 JUMP JUMPDEST JUMPDEST PUSH0 PUSH2 0x1B28 DUP5 DUP3 DUP6 ADD PUSH2 0x1A5C JUMP JUMPDEST SWAP2 POP POP SWAP3 SWAP2 POP POP JUMP JUMPDEST PUSH2 0x1B3A DUP2 PUSH2 0x1A3D JUMP JUMPDEST DUP3 MSTORE POP POP JUMP JUMPDEST PUSH0 PUSH1 0x20 DUP3 ADD SWAP1 POP PUSH2 0x1B53 PUSH0 DUP4 ADD DUP5 PUSH2 0x1B31 JUMP JUMPDEST SWAP3 SWAP2 POP POP JUMP JUMPDEST PUSH0 DUP2 ISZERO ISZERO SWAP1 POP SWAP2 SWAP1 POP JUMP JUMPDEST PUSH2 0x1B6D DUP2 PUSH2 0x1B59 JUMP JUMPDEST DUP3 MSTORE POP POP JUMP JUMPDEST PUSH0 PUSH1 0xA0 DUP3 ADD SWAP1 POP PUSH2 0x1B86 PUSH0 DUP4 ADD DUP9 PUSH2 0x1B31 JUMP JUMPDEST PUSH2 0x1B93 PUSH1 0x20 DUP4 ADD DUP8 PUSH2 0x1ADE JUMP JUMPDEST PUSH2 0x1BA0 PUSH1 0x40 DUP4 ADD DUP7 PUSH2 0x1B31 JUMP JUMPDEST PUSH2 0x1BAD PUSH1 0x60 DUP4 ADD DUP6 PUSH2 0x1B31 JUMP JUMPDEST PUSH2 0x1BBA PUSH1 0x80 DUP4 ADD DUP5 PUSH2 0x1B64 JUMP JUMPDEST SWAP7 SWAP6 POP POP POP POP POP POP JUMP JUMPDEST PUSH2 0x1BCD DUP2 PUSH2 0x1ACD JUMP JUMPDEST DUP2 EQ PUSH2 0x1BD7 JUMPI PUSH0 PUSH0 REVERT JUMPDEST POP JUMP JUMPDEST PUSH0 DUP2 CALLDATALOAD SWAP1 POP PUSH2 0x1BE8 DUP2 PUSH2 0x1BC4 JUMP JUMPDEST SWAP3 SWAP2 POP POP JUMP JUMPDEST PUSH0 PUSH0 PUSH1 0x40 DUP4 DUP6 SUB SLT ISZERO PUSH2 0x1C04 JUMPI PUSH2 0x1C03 PUSH2 0x1A39 JUMP JUMPDEST JUMPDEST PUSH0 PUSH2 0x1C11 DUP6 DUP3 DUP7 ADD PUSH2 0x1BDA JUMP JUMPDEST SWAP3 POP POP PUSH1 0x20 PUSH2 0x1C22 DUP6 DUP3 DUP7 ADD PUSH2 0x1A5C JUMP JUMPDEST SWAP2 POP POP SWAP3 POP SWAP3 SWAP1 POP JUMP JUMPDEST PUSH0 PUSH1 0xE0 DUP3 ADD SWAP1 POP PUSH2 0x1C3F PUSH0 DUP4 ADD DUP11 PUSH2 0x1B31 JUMP JUMPDEST PUSH2 0x1C4C PUSH1 0x20 DUP4 ADD DUP10 PUSH2 0x1ADE JUMP JUMPDEST PUSH2 0x1C59 PUSH1 0x40 DUP4 ADD DUP9 PUSH2 0x1B31 JUMP JUMPDEST PUSH2 0x1C66 PUSH1 0x60 DUP4 ADD DUP8 PUSH2 0x1B31 JUMP JUMPDEST PUSH2 0x1C73 PUSH1 0x80 DUP4 ADD DUP7 PUSH2 0x1B31 JUMP JUMPDEST PUSH2 0x1C80 PUSH1 0xA0 DUP4 ADD DUP6 PUSH2 0x1B31 JUMP JUMPDEST PUSH2 0x1C8D PUSH1 0xC0 DUP4 ADD DUP5 PUSH2 0x1B64 JUMP JUMPDEST SWAP9 SWAP8 POP POP POP POP POP POP POP POP JUMP JUMPDEST PUSH0 PUSH0 PUSH1 0x40 DUP4 DUP6 SUB SLT ISZERO PUSH2 0x1CAF JUMPI PUSH2 0x1CAE PUSH2 0x1A39 JUMP JUMPDEST JUMPDEST PUSH0 PUSH2 0x1CBC DUP6 DUP3 DUP7 ADD PUSH2 0x1A5C JUMP JUMPDEST SWAP3 POP POP PUSH1 0x20 PUSH2 0x1CCD DUP6 DUP3 DUP7 ADD PUSH2 0x1BDA JUMP JUMPDEST SWAP2 POP POP SWAP3 POP SWAP3 SWAP1 POP JUMP JUMPDEST PUSH0 PUSH1 0x40 DUP3 ADD SWAP1 POP PUSH2 0x1CEA PUSH0 DUP4 ADD DUP6 PUSH2 0x1B31 JUMP JUMPDEST PUSH2 0x1CF7 PUSH1 0x20 DUP4 ADD DUP5 PUSH2 0x1B31 JUMP JUMPDEST SWAP4 SWAP3 POP POP POP JUMP JUMPDEST PUSH0 DUP3 DUP3 MSTORE PUSH1 0x20 DUP3 ADD SWAP1 POP SWAP3 SWAP2 POP POP JUMP JUMPDEST PUSH32 0x4D6F766965206E6F7420666F756E640000000000000000000000000000000000 PUSH0 DUP3 ADD MSTORE POP JUMP JUMPDEST PUSH0 PUSH2 0x1D42 PUSH1 0xF DUP4 PUSH2 0x1CFE JUMP JUMPDEST SWAP2 POP PUSH2 0x1D4D DUP3 PUSH2 0x1D0E JUMP JUMPDEST PUSH1 0x20 DUP3 ADD SWAP1 POP SWAP2 SWAP1 POP JUMP JUMPDEST PUSH0 PUSH1 0x20 DUP3 ADD SWAP1 POP DUP2 DUP2 SUB PUSH0 DUP4 ADD MSTORE PUSH2 0x1D6F DUP2 PUSH2 0x1D36 JUMP JUMPDEST SWAP1 POP SWAP2 SWAP1 POP JUMP JUMPDEST PUSH32 0x4E6F2066756E6473000000000000000000000000000000000000000000000000 PUSH0 DUP3 ADD MSTORE POP JUMP JUMPDEST PUSH0 PUSH2 0x1DAA PUSH1 0x8 DUP4 PUSH2 0x1CFE JUMP JUMPDEST SWAP2 POP PUSH2 0x1DB5 DUP3 PUSH2 0x1D76 JUMP JUMPDEST PUSH1 0x20 DUP3 ADD SWAP1 POP SWAP2 SWAP1 POP JUMP JUMPDEST PUSH0 PUSH1 0x20 DUP3 ADD SWAP1 POP DUP2 DUP2 SUB PUSH0 DUP4 ADD MSTORE PUSH2 0x1DD7 DUP2 PUSH2 0x1D9E JUMP JUMPDEST SWAP1 POP SWAP2 SWAP1 POP JUMP JUMPDEST PUSH32 0x4E487B7100000000000000000000000000000000000000000000000000000000 PUSH0 MSTORE PUSH1 0x11 PUSH1 0x4 MSTORE PUSH1 0x24 PUSH0 REVERT JUMPDEST PUSH0 PUSH2 0x1E15 DUP3 PUSH2 0x1A3D JUMP JUMPDEST SWAP2 POP PUSH2 0x1E20 DUP4 PUSH2 0x1A3D JUMP JUMPDEST SWAP3 POP DUP3 DUP3 ADD SWAP1 POP DUP1 DUP3 GT ISZERO PUSH2 0x1E38 JUMPI PUSH2 0x1E37 PUSH2 0x1DDE JUMP JUMPDEST JUMPDEST SWAP3 SWAP2 POP POP JUMP JUMPDEST PUSH0 PUSH1 0x60 DUP3 ADD SWAP1 POP PUSH2 0x1E51 PUSH0 DUP4 ADD DUP7 PUSH2 0x1B31 JUMP JUMPDEST PUSH2 0x1E5E PUSH1 0x20 DUP4 ADD DUP6 PUSH2 0x1ADE JUMP JUMPDEST PUSH2 0x1E6B PUSH1 0x40 DUP4 ADD DUP5 PUSH2 0x1B31 JUMP JUMPDEST SWAP5 SWAP4 POP POP POP POP JUMP JUMPDEST PUSH32 0x4E6F206163746976652073747265616D00000000000000000000000000000000 PUSH0 DUP3 ADD MSTORE POP JUMP JUMPDEST PUSH0 PUSH2 0x1EA7 PUSH1 0x10 DUP4 PUSH2 0x1CFE JUMP JUMPDEST SWAP2 POP PUSH2 0x1EB2 DUP3 PUSH2 0x1E73 JUMP JUMPDEST PUSH1 0x20 DUP3 ADD SWAP1 POP SWAP2 SWAP1 POP JUMP JUMPDEST PUSH0 PUSH1 0x20 DUP3 ADD SWAP1 POP DUP2 DUP2 SUB PUSH0 DUP4 ADD MSTORE PUSH2 0x1ED4 DUP2 PUSH2 0x1E9B JUMP JUMPDEST SWAP1 POP SWAP2 SWAP1 POP JUMP JUMPDEST PUSH32 0x4E6F7468696E6720746F20736574746C65000000000000000000000000000000 PUSH0 DUP3 ADD MSTORE POP JUMP JUMPDEST PUSH0 PUSH2 0x1F0F PUSH1 0x11 DUP4 PUSH2 0x1CFE JUMP JUMPDEST SWAP2 POP PUSH2 0x1F1A DUP3 PUSH2 0x1EDB JUMP JUMPDEST PUSH1 0x20 DUP3 ADD SWAP1 POP SWAP2 SWAP1 POP JUMP JUMPDEST PUSH0 PUSH1 0x20 DUP3 ADD SWAP1 POP DUP2 DUP2 SUB PUSH0 DUP4 ADD MSTORE PUSH2 0x1F3C DUP2 PUSH2 0x1F03 JUMP JUMPDEST SWAP1 POP SWAP2 SWAP1 POP JUMP JUMPDEST PUSH0 PUSH2 0x1F4D DUP3 PUSH2 0x1A3D JUMP JUMPDEST SWAP2 POP PUSH2 0x1F58 DUP4 PUSH2 0x1A3D JUMP JUMPDEST SWAP3 POP DUP3 DUP3 SUB SWAP1 POP DUP2 DUP2 GT ISZERO PUSH2 0x1F70 JUMPI PUSH2 0x1F6F PUSH2 0x1DDE JUMP JUMPDEST JUMPDEST SWAP3 SWAP2 POP POP JUMP JUMPDEST PUSH0 PUSH2 0x1F80 DUP3 PUSH2 0x1A3D JUMP JUMPDEST SWAP2 POP PUSH2 0x1F8B DUP4 PUSH2 0x1A3D JUMP JUMPDEST SWAP3 POP DUP3 DUP3 MUL PUSH2 0x1F99 DUP2 PUSH2 0x1A3D JUMP JUMPDEST SWAP2 POP DUP3 DUP3 DIV DUP5 EQ DUP4 ISZERO OR PUSH2 0x1FB0 JUMPI PUSH2 0x1FAF PUSH2 0x1DDE JUMP JUMPDEST JUMPDEST POP SWAP3 SWAP2 POP POP JUMP JUMPDEST PUSH32 0x496E636F7272656374207061796D656E74000000000000000000000000000000 PUSH0 DUP3 ADD MSTORE POP JUMP JUMPDEST PUSH0 PUSH2 0x1FEB PUSH1 0x11 DUP4 PUSH2 0x1CFE JUMP JUMPDEST SWAP2 POP PUSH2 0x1FF6 DUP3 PUSH2 0x1FB7 JUMP JUMPDEST PUSH1 0x20 DUP3 ADD SWAP1 POP SWAP2 SWAP1 POP JUMP JUMPDEST PUSH0 PUSH1 0x20 DUP3 ADD SWAP1 POP DUP2 DUP2 SUB PUSH0 DUP4 ADD MSTORE PUSH2 0x2018 DUP2 PUSH2 0x1FDF JUMP JUMPDEST SWAP1 POP SWAP2 SWAP1 POP JUMP JUMPDEST PUSH0 PUSH1 0xC0 DUP3 ADD SWAP1 POP PUSH2 0x2032 PUSH0 DUP4 ADD DUP10 PUSH2 0x1B31 JUMP JUMPDEST PUSH2 0x203F PUSH1 0x20 DUP4 ADD DUP9 PUSH2 0x1ADE JUMP JUMPDEST PUSH2 0x204C PUSH1 0x40 DUP4 ADD DUP8 PUSH2 0x1B31 JUMP JUMPDEST PUSH2 0x2059 PUSH1 0x60 DUP4 ADD DUP7 PUSH2 0x1B31 JUMP JUMPDEST PUSH2 0x2066 PUSH1 0x80 DUP4 ADD DUP6 PUSH2 0x1B31 JUMP JUMPDEST PUSH2 0x2073 PUSH1 0xA0 DUP4 ADD DUP5 PUSH2 0x1B31 JUMP JUMPDEST SWAP8 SWAP7 POP POP POP POP POP POP POP JUMP JUMPDEST PUSH0 PUSH1 0xA0 DUP3 ADD SWAP1 POP PUSH2 0x2091 PUSH0 DUP4 ADD DUP9 PUSH2 0x1B31 JUMP JUMPDEST PUSH2 0x209E PUSH1 0x20 DUP4 ADD DUP8 PUSH2 0x1ADE JUMP JUMPDEST PUSH2 0x20AB PUSH1 0x40 DUP4 ADD DUP7 PUSH2 0x1B31 JUMP JUMPDEST PUSH2 0x20B8 PUSH1 0x60 DUP4 ADD DUP6 PUSH2 0x1B31 JUMP JUMPDEST PUSH2 0x20C5 PUSH1 0x80 DUP4 ADD DUP5 PUSH2 0x1B31 JUMP JUMPDEST SWAP7 SWAP6 POP POP POP POP POP POP JUMP JUMPDEST PUSH32 0x5061796D656E7420726571756972656400000000000000000000000000000000 PUSH0 DUP3 ADD MSTORE POP JUMP JUMPDEST PUSH0 PUSH2 0x2103 PUSH1 0x10 DUP4 PUSH2 0x1CFE JUMP JUMPDEST SWAP2 POP PUSH2 0x210E DUP3 PUSH2 0x20CF JUMP JUMPDEST PUSH1 0x20 DUP3 ADD SWAP1 POP SWAP2 SWAP1 POP JUMP JUMPDEST PUSH0 PUSH1 0x20 DUP3 ADD SWAP1 POP DUP2 DUP2 SUB PUSH0 DUP4 ADD MSTORE PUSH2 0x2130 DUP2 PUSH2 0x20F7 JUMP JUMPDEST SWAP1 POP SWAP2 SWAP1 POP JUMP JUMPDEST PUSH32 0x4E487B7100000000000000000000000000000000000000000000000000000000 PUSH0 MSTORE PUSH1 0x12 PUSH1 0x4 MSTORE PUSH1 0x24 PUSH0 REVERT JUMPDEST PUSH0 PUSH2 0x216E DUP3 PUSH2 0x1A3D JUMP JUMPDEST SWAP2 POP PUSH2 0x2179 DUP4 PUSH2 0x1A3D JUMP JUMPDEST SWAP3 POP DUP3 PUSH2 0x2189 JUMPI PUSH2 0x2188 PUSH2 0x2137 JUMP JUMPDEST JUMPDEST DUP3 DUP3 DIV SWAP1 POP SWAP3 SWAP2 POP POP JUMP JUMPDEST PUSH0 DUP2 SWAP1 POP SWAP3 SWAP2 POP POP JUMP JUMPDEST POP JUMP JUMPDEST PUSH0 PUSH2 0x21AC PUSH0 DUP4 PUSH2 0x2194 JUMP JUMPDEST SWAP2 POP PUSH2 0x21B7 DUP3 PUSH2 0x219E JUMP JUMPDEST PUSH0 DUP3 ADD SWAP1 POP SWAP2 SWAP1 POP JUMP JUMPDEST PUSH0 PUSH2 0x21CB DUP3 PUSH2 0x21A1 JUMP JUMPDEST SWAP2 POP DUP2 SWAP1 POP SWAP2 SWAP1 POP JUMP JUMPDEST PUSH32 0x43726561746F72207472616E73666572206661696C6564000000000000000000 PUSH0 DUP3 ADD MSTORE POP JUMP JUMPDEST PUSH0 PUSH2 0x2209 PUSH1 0x17 DUP4 PUSH2 0x1CFE JUMP JUMPDEST SWAP2 POP PUSH2 0x2214 DUP3 PUSH2 0x21D5 JUMP JUMPDEST PUSH1 0x20 DUP3 ADD SWAP1 POP SWAP2 SWAP1 POP JUMP JUMPDEST PUSH0 PUSH1 0x20 DUP3 ADD SWAP1 POP DUP2 DUP2 SUB PUSH0 DUP4 ADD MSTORE PUSH2 0x2236 DUP2 PUSH2 0x21FD JUMP JUMPDEST SWAP1 POP SWAP2 SWAP1 POP JUMP JUMPDEST PUSH32 0x506C6174666F726D207472616E73666572206661696C65640000000000000000 PUSH0 DUP3 ADD MSTORE POP JUMP JUMPDEST PUSH0 PUSH2 0x2271 PUSH1 0x18 DUP4 PUSH2 0x1CFE JUMP JUMPDEST SWAP2 POP PUSH2 0x227C DUP3 PUSH2 0x223D JUMP JUMPDEST PUSH1 0x20 DUP3 ADD SWAP1 POP SWAP2 SWAP1 POP JUMP JUMPDEST PUSH0 PUSH1 0x20 DUP3 ADD SWAP1 POP DUP2 DUP2 SUB PUSH0 DUP4 ADD MSTORE PUSH2 0x229E DUP2 PUSH2 0x2265 JUMP JUMPDEST SWAP1 POP SWAP2 SWAP1 POP JUMP JUMPDEST PUSH32 0x4E6F2062616C616E636500000000000000000000000000000000000000000000 PUSH0 DUP3 ADD MSTORE POP JUMP JUMPDEST PUSH0 PUSH2 0x22D9 PUSH1 0xA DUP4 PUSH2 0x1CFE JUMP JUMPDEST SWAP2 POP PUSH2 0x22E4 DUP3 PUSH2 0x22A5 JUMP JUMPDEST PUSH1 0x20 DUP3 ADD SWAP1 POP SWAP2 SWAP1 POP JUMP JUMPDEST PUSH0 PUSH1 0x20 DUP3 ADD SWAP1 POP DUP2 DUP2 SUB PUSH0 DUP4 ADD MSTORE PUSH2 0x2306 DUP2 PUSH2 0x22CD JUMP JUMPDEST SWAP1 POP SWAP2 SWAP1 POP JUMP JUMPDEST PUSH32 0x5769746864726177616C207472616E73666572206661696C6564000000000000 PUSH0 DUP3 ADD MSTORE POP JUMP JUMPDEST PUSH0 PUSH2 0x2341 PUSH1 0x1A DUP4 PUSH2 0x1CFE JUMP JUMPDEST SWAP2 POP PUSH2 0x234C DUP3 PUSH2 0x230D JUMP JUMPDEST PUSH1 0x20 DUP3 ADD SWAP1 POP SWAP2 SWAP1 POP JUMP JUMPDEST PUSH0 PUSH1 0x20 DUP3 ADD SWAP1 POP DUP2 DUP2 SUB PUSH0 DUP4 ADD MSTORE PUSH2 0x236E DUP2 PUSH2 0x2335 JUMP JUMPDEST SWAP1 POP SWAP2 SWAP1 POP JUMP JUMPDEST PUSH0 PUSH1 0x40 DUP3 ADD SWAP1 POP PUSH2 0x2388 PUSH0 DUP4 ADD DUP6 PUSH2 0x1ADE JUMP JUMPDEST PUSH2 0x2395 PUSH1 0x20 DUP4 ADD DUP5 PUSH2 0x1B31 JUMP JUMPDEST SWAP4 SWAP3 POP POP POP JUMP JUMPDEST PUSH32 0x496E76616C696420707269636500000000000000000000000000000000000000 PUSH0 DUP3 ADD MSTORE POP JUMP JUMPDEST PUSH0 PUSH2 0x23D0 PUSH1 0xD DUP4 PUSH2 0x1CFE JUMP JUMPDEST SWAP2 POP PUSH2 0x23DB DUP3 PUSH2 0x239C JUMP JUMPDEST PUSH1 0x20 DUP3 ADD SWAP1 POP SWAP2 SWAP1 POP JUMP JUMPDEST PUSH0 PUSH1 0x20 DUP3 ADD SWAP1 POP DUP2 DUP2 SUB PUSH0 DUP4 ADD MSTORE PUSH2 0x23FD DUP2 PUSH2 0x23C4 JUMP JUMPDEST SWAP1 POP SWAP2 SWAP1 POP JUMP JUMPDEST PUSH32 0x496E76616C69642063726561746F722077616C6C657400000000000000000000 PUSH0 DUP3 ADD MSTORE POP JUMP JUMPDEST PUSH0 PUSH2 0x2438 PUSH1 0x16 DUP4 PUSH2 0x1CFE JUMP JUMPDEST SWAP2 POP PUSH2 0x2443 DUP3 PUSH2 0x2404 JUMP JUMPDEST PUSH1 0x20 DUP3 ADD SWAP1 POP SWAP2 SWAP1 POP JUMP JUMPDEST PUSH0 PUSH1 0x20 DUP3 ADD SWAP1 POP DUP2 DUP2 SUB PUSH0 DUP4 ADD MSTORE PUSH2 0x2465 DUP2 PUSH2 0x242C JUMP JUMPDEST SWAP1 POP SWAP2 SWAP1 POP JUMP JUMPDEST PUSH0 PUSH2 0x2476 DUP3 PUSH2 0x1A3D JUMP JUMPDEST SWAP2 POP PUSH32 0xFFFFFFFFFFFFFFFFFFFFFFFFFFFFFFFFFFFFFFFFFFFFFFFFFFFFFFFFFFFFFFFF DUP3 SUB PUSH2 0x24A8 JUMPI PUSH2 0x24A7 PUSH2 0x1DDE JUMP JUMPDEST JUMPDEST PUSH1 0x1 DUP3 ADD SWAP1 POP SWAP2 SWAP1 POP JUMP JUMPDEST PUSH32 0x53747265616D20616C7265616479206163746976650000000000000000000000 PUSH0 DUP3 ADD MSTORE POP JUMP JUMPDEST PUSH0 PUSH2 0x24E7 PUSH1 0x15 DUP4 PUSH2 0x1CFE JUMP JUMPDEST SWAP2 POP PUSH2 0x24F2 DUP3 PUSH2 0x24B3 JUMP JUMPDEST PUSH1 0x20 DUP3 ADD SWAP1 POP SWAP2 SWAP1 POP JUMP JUMPDEST PUSH0 PUSH1 0x20 DUP3 ADD SWAP1 POP DUP2 DUP2 SUB PUSH0 DUP4 ADD MSTORE PUSH2 0x2514 DUP2 PUSH2 0x24DB JUMP JUMPDEST SWAP1 POP SWAP2 SWAP1 POP JUMP JUMPDEST PUSH32 0x4E487B7100000000000000000000000000000000000000000000000000000000 PUSH0 MSTORE PUSH1 0x32 PUSH1 0x4 MSTORE PUSH1 0x24 PUSH0 REVERT JUMPDEST PUSH32 0x496E766573746F72207472616E73666572206661696C65640000000000000000 PUSH0 DUP3 ADD MSTORE POP JUMP JUMPDEST PUSH0 PUSH2 0x257C PUSH1 0x18 DUP4 PUSH2 0x1CFE JUMP JUMPDEST SWAP2 POP PUSH2 0x2587 DUP3 PUSH2 0x2548 JUMP JUMPDEST PUSH1 0x20 DUP3 ADD SWAP1 POP SWAP2 SWAP1 POP JUMP JUMPDEST PUSH0 PUSH1 0x20 DUP3 ADD SWAP1 POP DUP2 DUP2 SUB PUSH0 DUP4 ADD MSTORE PUSH2 0x25A9 DUP2 PUSH2 0x2570 JUMP JUMPDEST SWAP1 POP SWAP2 SWAP1 POP JUMP JUMPDEST PUSH32 0x446973747269627574696F6E206D69736D617463680000000000000000000000 PUSH0 DUP3 ADD MSTORE POP JUMP JUMPDEST PUSH0 PUSH2 0x25E4 PUSH1 0x15 DUP4 PUSH2 0x1CFE JUMP JUMPDEST SWAP2 POP PUSH2 0x25EF DUP3 PUSH2 0x25B0 JUMP JUMPDEST PUSH1 0x20 DUP3 ADD SWAP1 POP SWAP2 SWAP1 POP JUMP JUMPDEST PUSH0 PUSH1 0x20 DUP3 ADD SWAP1 POP DUP2 DUP2 SUB PUSH0 DUP4 ADD MSTORE PUSH2 0x2611 DUP2 PUSH2 0x25D8 JUMP JUMPDEST SWAP1 POP SWAP2 SWAP1 POP JUMP INVALID LOG2 PUSH5 0x6970667358 0x22 SLT KECCAK256 0xBF RETURN SLOAD DIV 0xBA PUSH32 0xEBBAC706371EB2F20689E6219FDDC2DAE7CF6A8F489AB03D22EA64736F6C6343 STOP ADDMOD SHR STOP CALLER "},"methodIdentifiers":{"CREATOR_SHARE()":"cc0c3039","INVESTOR_SHARE()":"20933c7b","PLATFORM_SHARE()":"66fab57c","invest(uint256)":"2afcf480","investors(uint256,address)":"e61dd2a6","movieCount()":"a1daf326","movieInvestors(uint256,uint256)":"0c51d55e","movies(uint256)":"404ebf6c","pay(uint256)":"c290d691","platform()":"4bde38c8","registerMovie(uint256,address)":"f19644e7","settleStream(uint256)":"367c8022","startStream(uint256)":"f3b65fb2","stopStream(uint256)":"85d5089e","streams(address,uint256)":"9b9d6cc1","totalShares(uint256)":"13f2dad0","withdrawInvestorFunds(uint256)":"e7be516b"}}}}}